{
	"Crowdfund.sol": {
		"CrowdFund": {
			"abi": [
				{
					"inputs": [],
					"name": "fund",
					"outputs": [],
					"stateMutability": "payable",
					"type": "function"
				},
				{
					"inputs": [
						{
							"internalType": "int256",
							"name": "ethAmount",
							"type": "int256"
						}
					],
					"name": "getConversionRate",
					"outputs": [
						{
							"internalType": "int256",
							"name": "",
							"type": "int256"
						}
					],
					"stateMutability": "view",
					"type": "function"
				},
				{
					"inputs": [],
					"name": "getEthPrice",
					"outputs": [
						{
							"internalType": "int256",
							"name": "",
							"type": "int256"
						}
					],
					"stateMutability": "view",
					"type": "function"
				},
				{
					"inputs": [],
					"name": "getVersion",
					"outputs": [
						{
							"internalType": "uint256",
							"name": "",
							"type": "uint256"
						}
					],
					"stateMutability": "view",
					"type": "function"
				}
			],
			"devdoc": {
				"kind": "dev",
				"methods": {},
				"version": 1
			},
			"evm": {
				"assembly": "    /* \"Crowdfund.sol\":330:1955  contract CrowdFund {... */\n  mstore(0x40, 0x80)\n    /* \"Crowdfund.sol\":419:461  0x694AA1769357215DE4FAC081bf1f309aDC325306 */\n  0x694aa1769357215de4fac081bf1f309adc325306\n    /* \"Crowdfund.sol\":393:461  address priceFeedAdress = 0x694AA1769357215DE4FAC081bf1f309aDC325306 */\n  0x00\n  dup1\n  0x0100\n  exp\n  dup2\n  sload\n  dup2\n  0xffffffffffffffffffffffffffffffffffffffff\n  mul\n  not\n  and\n  swap1\n  dup4\n  0xffffffffffffffffffffffffffffffffffffffff\n  and\n  mul\n  or\n  swap1\n  sstore\n  pop\n    /* \"Crowdfund.sol\":486:487  5 */\n  0x05\n    /* \"Crowdfund.sol\":467:487  int256 minAmount = 5 */\n  0x01\n  sstore\n    /* \"Crowdfund.sol\":330:1955  contract CrowdFund {... */\n  callvalue\n  dup1\n  iszero\n  tag_1\n  jumpi\n  0x00\n  dup1\n  revert\ntag_1:\n  pop\n  dataSize(sub_0)\n  dup1\n  dataOffset(sub_0)\n  0x00\n  codecopy\n  0x00\n  return\nstop\n\nsub_0: assembly {\n        /* \"Crowdfund.sol\":330:1955  contract CrowdFund {... */\n      mstore(0x40, 0x80)\n      jumpi(tag_1, lt(calldatasize, 0x04))\n      shr(0xe0, calldataload(0x00))\n      dup1\n      0x0d8e6e2c\n      eq\n      tag_2\n      jumpi\n      dup1\n      0x325df6e2\n      eq\n      tag_3\n      jumpi\n      dup1\n      0x67c9b017\n      eq\n      tag_4\n      jumpi\n      dup1\n      0xb60d4288\n      eq\n      tag_5\n      jumpi\n    tag_1:\n      0x00\n      dup1\n      revert\n        /* \"Crowdfund.sol\":761:885  function getVersion() public view returns (uint256) {... */\n    tag_2:\n      callvalue\n      dup1\n      iszero\n      tag_6\n      jumpi\n      0x00\n      dup1\n      revert\n    tag_6:\n      pop\n      tag_7\n      tag_8\n      jump\t// in\n    tag_7:\n      mload(0x40)\n      tag_9\n      swap2\n      swap1\n      tag_10\n      jump\t// in\n    tag_9:\n      mload(0x40)\n      dup1\n      swap2\n      sub\n      swap1\n      return\n        /* \"Crowdfund.sol\":1271:1487  function getConversionRate(int ethAmount) public view returns (int) {... */\n    tag_3:\n      callvalue\n      dup1\n      iszero\n      tag_11\n      jumpi\n      0x00\n      dup1\n      revert\n    tag_11:\n      pop\n      tag_12\n      0x04\n      dup1\n      calldatasize\n      sub\n      dup2\n      add\n      swap1\n      tag_13\n      swap2\n      swap1\n      tag_14\n      jump\t// in\n    tag_13:\n      tag_15\n      jump\t// in\n    tag_12:\n      mload(0x40)\n      tag_16\n      swap2\n      swap1\n      tag_17\n      jump\t// in\n    tag_16:\n      mload(0x40)\n      dup1\n      swap2\n      sub\n      swap1\n      return\n        /* \"Crowdfund.sol\":971:1265  function getEthPrice() public view returns (int256) {... */\n    tag_4:\n      callvalue\n      dup1\n      iszero\n      tag_18\n      jumpi\n      0x00\n      dup1\n      revert\n    tag_18:\n      pop\n      tag_19\n      tag_20\n      jump\t// in\n    tag_19:\n      mload(0x40)\n      tag_21\n      swap2\n      swap1\n      tag_17\n      jump\t// in\n    tag_21:\n      mload(0x40)\n      dup1\n      swap2\n      sub\n      swap1\n      return\n        /* \"Crowdfund.sol\":548:677  function fund() public payable {... */\n    tag_5:\n      tag_22\n      tag_23\n      jump\t// in\n    tag_22:\n      stop\n        /* \"Crowdfund.sol\":761:885  function getVersion() public view returns (uint256) {... */\n    tag_8:\n        /* \"Crowdfund.sol\":804:811  uint256 */\n      0x00\n        /* \"Crowdfund.sol\":852:867  priceFeedAdress */\n      dup1\n      0x00\n      swap1\n      sload\n      swap1\n      0x0100\n      exp\n      swap1\n      div\n      0xffffffffffffffffffffffffffffffffffffffff\n      and\n        /* \"Crowdfund.sol\":830:876  AggregatorV3Interface(priceFeedAdress).version */\n      0xffffffffffffffffffffffffffffffffffffffff\n      and\n      0x54fd4d50\n        /* \"Crowdfund.sol\":830:878  AggregatorV3Interface(priceFeedAdress).version() */\n      mload(0x40)\n      dup2\n      0xffffffff\n      and\n      0xe0\n      shl\n      dup2\n      mstore\n      0x04\n      add\n      0x20\n      mload(0x40)\n      dup1\n      dup4\n      sub\n      dup2\n      dup7\n      gas\n      staticcall\n      iszero\n      dup1\n      iszero\n      tag_26\n      jumpi\n      returndatasize\n      0x00\n      dup1\n      returndatacopy\n      revert(0x00, returndatasize)\n    tag_26:\n      pop\n      pop\n      pop\n      pop\n      mload(0x40)\n      returndatasize\n      not(0x1f)\n      0x1f\n      dup3\n      add\n      and\n      dup3\n      add\n      dup1\n      0x40\n      mstore\n      pop\n      dup2\n      add\n      swap1\n      tag_27\n      swap2\n      swap1\n      tag_28\n      jump\t// in\n    tag_27:\n        /* \"Crowdfund.sol\":823:878  return AggregatorV3Interface(priceFeedAdress).version() */\n      swap1\n      pop\n        /* \"Crowdfund.sol\":761:885  function getVersion() public view returns (uint256) {... */\n      swap1\n      jump\t// out\n        /* \"Crowdfund.sol\":1271:1487  function getConversionRate(int ethAmount) public view returns (int) {... */\n    tag_15:\n        /* \"Crowdfund.sol\":1334:1337  int */\n      0x00\n        /* \"Crowdfund.sol\":1347:1366  int currentEthValue */\n      dup1\n        /* \"Crowdfund.sol\":1369:1382  getEthPrice() */\n      tag_30\n        /* \"Crowdfund.sol\":1369:1380  getEthPrice */\n      tag_20\n        /* \"Crowdfund.sol\":1369:1382  getEthPrice() */\n      jump\t// in\n    tag_30:\n        /* \"Crowdfund.sol\":1347:1382  int currentEthValue = getEthPrice() */\n      swap1\n      pop\n        /* \"Crowdfund.sol\":1390:1408  int ethAmountInUSD */\n      0x00\n        /* \"Crowdfund.sol\":1441:1445  1e18 */\n      0x0de0b6b3a7640000\n        /* \"Crowdfund.sol\":1424:1439  currentEthValue */\n      dup3\n        /* \"Crowdfund.sol\":1412:1421  ethAmount */\n      dup6\n        /* \"Crowdfund.sol\":1412:1439  ethAmount * currentEthValue */\n      tag_31\n      swap2\n      swap1\n      tag_32\n      jump\t// in\n    tag_31:\n        /* \"Crowdfund.sol\":1411:1445  (ethAmount * currentEthValue)/1e18 */\n      tag_33\n      swap2\n      swap1\n      tag_34\n      jump\t// in\n    tag_33:\n        /* \"Crowdfund.sol\":1390:1445  int ethAmountInUSD = (ethAmount * currentEthValue)/1e18 */\n      swap1\n      pop\n        /* \"Crowdfund.sol\":1460:1474  ethAmountInUSD */\n      dup1\n        /* \"Crowdfund.sol\":1453:1474  return ethAmountInUSD */\n      swap3\n      pop\n      pop\n      pop\n        /* \"Crowdfund.sol\":1271:1487  function getConversionRate(int ethAmount) public view returns (int) {... */\n      swap2\n      swap1\n      pop\n      jump\t// out\n        /* \"Crowdfund.sol\":971:1265  function getEthPrice() public view returns (int256) {... */\n    tag_20:\n        /* \"Crowdfund.sol\":1015:1021  int256 */\n      0x00\n        /* \"Crowdfund.sol\":1033:1064  AggregatorV3Interface priceFeed */\n      dup1\n        /* \"Crowdfund.sol\":1102:1117  priceFeedAdress */\n      0x00\n      dup1\n      sload\n      swap1\n      0x0100\n      exp\n      swap1\n      div\n      0xffffffffffffffffffffffffffffffffffffffff\n      and\n        /* \"Crowdfund.sol\":1033:1127  AggregatorV3Interface priceFeed = AggregatorV3Interface(... */\n      swap1\n      pop\n        /* \"Crowdfund.sol\":1140:1153  int256 answer */\n      0x00\n        /* \"Crowdfund.sol\":1163:1172  priceFeed */\n      dup2\n        /* \"Crowdfund.sol\":1163:1188  priceFeed.latestRoundData */\n      0xffffffffffffffffffffffffffffffffffffffff\n      and\n      0xfeaf968c\n        /* \"Crowdfund.sol\":1163:1190  priceFeed.latestRoundData() */\n      mload(0x40)\n      dup2\n      0xffffffff\n      and\n      0xe0\n      shl\n      dup2\n      mstore\n      0x04\n      add\n      0xa0\n      mload(0x40)\n      dup1\n      dup4\n      sub\n      dup2\n      dup7\n      gas\n      staticcall\n      iszero\n      dup1\n      iszero\n      tag_37\n      jumpi\n      returndatasize\n      0x00\n      dup1\n      returndatacopy\n      revert(0x00, returndatasize)\n    tag_37:\n      pop\n      pop\n      pop\n      pop\n      mload(0x40)\n      returndatasize\n      not(0x1f)\n      0x1f\n      dup3\n      add\n      and\n      dup3\n      add\n      dup1\n      0x40\n      mstore\n      pop\n      dup2\n      add\n      swap1\n      tag_38\n      swap2\n      swap1\n      tag_39\n      jump\t// in\n    tag_38:\n        /* \"Crowdfund.sol\":1137:1190  (, int256 answer, , , ) = priceFeed.latestRoundData() */\n      pop\n      pop\n      pop\n      swap2\n      pop\n      pop\n        /* \"Crowdfund.sol\":1252:1256  1e10 */\n      0x02540be400\n        /* \"Crowdfund.sol\":1243:1249  answer */\n      dup2\n        /* \"Crowdfund.sol\":1243:1256  answer * 1e10 */\n      tag_40\n      swap2\n      swap1\n      tag_32\n      jump\t// in\n    tag_40:\n        /* \"Crowdfund.sol\":1235:1257  return (answer * 1e10) */\n      swap3\n      pop\n      pop\n      pop\n        /* \"Crowdfund.sol\":971:1265  function getEthPrice() public view returns (int256) {... */\n      swap1\n      jump\t// out\n        /* \"Crowdfund.sol\":548:677  function fund() public payable {... */\n    tag_23:\n        /* \"Crowdfund.sol\":629:638  minAmount */\n      sload(0x01)\n        /* \"Crowdfund.sol\":593:626  getConversionRate(int(msg.value)) */\n      tag_42\n        /* \"Crowdfund.sol\":615:624  msg.value */\n      callvalue\n        /* \"Crowdfund.sol\":593:610  getConversionRate */\n      tag_15\n        /* \"Crowdfund.sol\":593:626  getConversionRate(int(msg.value)) */\n      jump\t// in\n    tag_42:\n        /* \"Crowdfund.sol\":593:638  getConversionRate(int(msg.value)) > minAmount */\n      sgt\n        /* \"Crowdfund.sol\":585:670  require(getConversionRate(int(msg.value)) > minAmount, \"Minimum amount to send is 5\") */\n      tag_43\n      jumpi\n      mload(0x40)\n      0x08c379a000000000000000000000000000000000000000000000000000000000\n      dup2\n      mstore\n      0x04\n      add\n      tag_44\n      swap1\n      tag_45\n      jump\t// in\n    tag_44:\n      mload(0x40)\n      dup1\n      swap2\n      sub\n      swap1\n      revert\n    tag_43:\n        /* \"Crowdfund.sol\":548:677  function fund() public payable {... */\n      jump\t// out\n        /* \"#utility.yul\":7:84   */\n    tag_46:\n        /* \"#utility.yul\":44:51   */\n      0x00\n        /* \"#utility.yul\":73:78   */\n      dup2\n        /* \"#utility.yul\":62:78   */\n      swap1\n      pop\n        /* \"#utility.yul\":7:84   */\n      swap2\n      swap1\n      pop\n      jump\t// out\n        /* \"#utility.yul\":90:208   */\n    tag_47:\n        /* \"#utility.yul\":177:201   */\n      tag_69\n        /* \"#utility.yul\":195:200   */\n      dup2\n        /* \"#utility.yul\":177:201   */\n      tag_46\n      jump\t// in\n    tag_69:\n        /* \"#utility.yul\":172:175   */\n      dup3\n        /* \"#utility.yul\":165:202   */\n      mstore\n        /* \"#utility.yul\":90:208   */\n      pop\n      pop\n      jump\t// out\n        /* \"#utility.yul\":214:436   */\n    tag_10:\n        /* \"#utility.yul\":307:311   */\n      0x00\n        /* \"#utility.yul\":345:347   */\n      0x20\n        /* \"#utility.yul\":334:343   */\n      dup3\n        /* \"#utility.yul\":330:348   */\n      add\n        /* \"#utility.yul\":322:348   */\n      swap1\n      pop\n        /* \"#utility.yul\":358:429   */\n      tag_71\n        /* \"#utility.yul\":426:427   */\n      0x00\n        /* \"#utility.yul\":415:424   */\n      dup4\n        /* \"#utility.yul\":411:428   */\n      add\n        /* \"#utility.yul\":402:408   */\n      dup5\n        /* \"#utility.yul\":358:429   */\n      tag_47\n      jump\t// in\n    tag_71:\n        /* \"#utility.yul\":214:436   */\n      swap3\n      swap2\n      pop\n      pop\n      jump\t// out\n        /* \"#utility.yul\":523:640   */\n    tag_49:\n        /* \"#utility.yul\":632:633   */\n      0x00\n        /* \"#utility.yul\":629:630   */\n      dup1\n        /* \"#utility.yul\":622:634   */\n      revert\n        /* \"#utility.yul\":769:845   */\n    tag_51:\n        /* \"#utility.yul\":805:812   */\n      0x00\n        /* \"#utility.yul\":834:839   */\n      dup2\n        /* \"#utility.yul\":823:839   */\n      swap1\n      pop\n        /* \"#utility.yul\":769:845   */\n      swap2\n      swap1\n      pop\n      jump\t// out\n        /* \"#utility.yul\":851:971   */\n    tag_52:\n        /* \"#utility.yul\":923:946   */\n      tag_77\n        /* \"#utility.yul\":940:945   */\n      dup2\n        /* \"#utility.yul\":923:946   */\n      tag_51\n      jump\t// in\n    tag_77:\n        /* \"#utility.yul\":916:921   */\n      dup2\n        /* \"#utility.yul\":913:947   */\n      eq\n        /* \"#utility.yul\":903:965   */\n      tag_78\n      jumpi\n        /* \"#utility.yul\":961:962   */\n      0x00\n        /* \"#utility.yul\":958:959   */\n      dup1\n        /* \"#utility.yul\":951:963   */\n      revert\n        /* \"#utility.yul\":903:965   */\n    tag_78:\n        /* \"#utility.yul\":851:971   */\n      pop\n      jump\t// out\n        /* \"#utility.yul\":977:1114   */\n    tag_53:\n        /* \"#utility.yul\":1022:1027   */\n      0x00\n        /* \"#utility.yul\":1060:1066   */\n      dup2\n        /* \"#utility.yul\":1047:1067   */\n      calldataload\n        /* \"#utility.yul\":1038:1067   */\n      swap1\n      pop\n        /* \"#utility.yul\":1076:1108   */\n      tag_80\n        /* \"#utility.yul\":1102:1107   */\n      dup2\n        /* \"#utility.yul\":1076:1108   */\n      tag_52\n      jump\t// in\n    tag_80:\n        /* \"#utility.yul\":977:1114   */\n      swap3\n      swap2\n      pop\n      pop\n      jump\t// out\n        /* \"#utility.yul\":1120:1447   */\n    tag_14:\n        /* \"#utility.yul\":1178:1184   */\n      0x00\n        /* \"#utility.yul\":1227:1229   */\n      0x20\n        /* \"#utility.yul\":1215:1224   */\n      dup3\n        /* \"#utility.yul\":1206:1213   */\n      dup5\n        /* \"#utility.yul\":1202:1225   */\n      sub\n        /* \"#utility.yul\":1198:1230   */\n      slt\n        /* \"#utility.yul\":1195:1314   */\n      iszero\n      tag_82\n      jumpi\n        /* \"#utility.yul\":1233:1312   */\n      tag_83\n      tag_49\n      jump\t// in\n    tag_83:\n        /* \"#utility.yul\":1195:1314   */\n    tag_82:\n        /* \"#utility.yul\":1353:1354   */\n      0x00\n        /* \"#utility.yul\":1378:1430   */\n      tag_84\n        /* \"#utility.yul\":1422:1429   */\n      dup5\n        /* \"#utility.yul\":1413:1419   */\n      dup3\n        /* \"#utility.yul\":1402:1411   */\n      dup6\n        /* \"#utility.yul\":1398:1420   */\n      add\n        /* \"#utility.yul\":1378:1430   */\n      tag_53\n      jump\t// in\n    tag_84:\n        /* \"#utility.yul\":1368:1430   */\n      swap2\n      pop\n        /* \"#utility.yul\":1324:1440   */\n      pop\n        /* \"#utility.yul\":1120:1447   */\n      swap3\n      swap2\n      pop\n      pop\n      jump\t// out\n        /* \"#utility.yul\":1453:1568   */\n    tag_54:\n        /* \"#utility.yul\":1538:1561   */\n      tag_86\n        /* \"#utility.yul\":1555:1560   */\n      dup2\n        /* \"#utility.yul\":1538:1561   */\n      tag_51\n      jump\t// in\n    tag_86:\n        /* \"#utility.yul\":1533:1536   */\n      dup3\n        /* \"#utility.yul\":1526:1562   */\n      mstore\n        /* \"#utility.yul\":1453:1568   */\n      pop\n      pop\n      jump\t// out\n        /* \"#utility.yul\":1574:1792   */\n    tag_17:\n        /* \"#utility.yul\":1665:1669   */\n      0x00\n        /* \"#utility.yul\":1703:1705   */\n      0x20\n        /* \"#utility.yul\":1692:1701   */\n      dup3\n        /* \"#utility.yul\":1688:1706   */\n      add\n        /* \"#utility.yul\":1680:1706   */\n      swap1\n      pop\n        /* \"#utility.yul\":1716:1785   */\n      tag_88\n        /* \"#utility.yul\":1782:1783   */\n      0x00\n        /* \"#utility.yul\":1771:1780   */\n      dup4\n        /* \"#utility.yul\":1767:1784   */\n      add\n        /* \"#utility.yul\":1758:1764   */\n      dup5\n        /* \"#utility.yul\":1716:1785   */\n      tag_54\n      jump\t// in\n    tag_88:\n        /* \"#utility.yul\":1574:1792   */\n      swap3\n      swap2\n      pop\n      pop\n      jump\t// out\n        /* \"#utility.yul\":1798:1920   */\n    tag_55:\n        /* \"#utility.yul\":1871:1895   */\n      tag_90\n        /* \"#utility.yul\":1889:1894   */\n      dup2\n        /* \"#utility.yul\":1871:1895   */\n      tag_46\n      jump\t// in\n    tag_90:\n        /* \"#utility.yul\":1864:1869   */\n      dup2\n        /* \"#utility.yul\":1861:1896   */\n      eq\n        /* \"#utility.yul\":1851:1914   */\n      tag_91\n      jumpi\n        /* \"#utility.yul\":1910:1911   */\n      0x00\n        /* \"#utility.yul\":1907:1908   */\n      dup1\n        /* \"#utility.yul\":1900:1912   */\n      revert\n        /* \"#utility.yul\":1851:1914   */\n    tag_91:\n        /* \"#utility.yul\":1798:1920   */\n      pop\n      jump\t// out\n        /* \"#utility.yul\":1926:2069   */\n    tag_56:\n        /* \"#utility.yul\":1983:1988   */\n      0x00\n        /* \"#utility.yul\":2014:2020   */\n      dup2\n        /* \"#utility.yul\":2008:2021   */\n      mload\n        /* \"#utility.yul\":1999:2021   */\n      swap1\n      pop\n        /* \"#utility.yul\":2030:2063   */\n      tag_93\n        /* \"#utility.yul\":2057:2062   */\n      dup2\n        /* \"#utility.yul\":2030:2063   */\n      tag_55\n      jump\t// in\n    tag_93:\n        /* \"#utility.yul\":1926:2069   */\n      swap3\n      swap2\n      pop\n      pop\n      jump\t// out\n        /* \"#utility.yul\":2075:2426   */\n    tag_28:\n        /* \"#utility.yul\":2145:2151   */\n      0x00\n        /* \"#utility.yul\":2194:2196   */\n      0x20\n        /* \"#utility.yul\":2182:2191   */\n      dup3\n        /* \"#utility.yul\":2173:2180   */\n      dup5\n        /* \"#utility.yul\":2169:2192   */\n      sub\n        /* \"#utility.yul\":2165:2197   */\n      slt\n        /* \"#utility.yul\":2162:2281   */\n      iszero\n      tag_95\n      jumpi\n        /* \"#utility.yul\":2200:2279   */\n      tag_96\n      tag_49\n      jump\t// in\n    tag_96:\n        /* \"#utility.yul\":2162:2281   */\n    tag_95:\n        /* \"#utility.yul\":2320:2321   */\n      0x00\n        /* \"#utility.yul\":2345:2409   */\n      tag_97\n        /* \"#utility.yul\":2401:2408   */\n      dup5\n        /* \"#utility.yul\":2392:2398   */\n      dup3\n        /* \"#utility.yul\":2381:2390   */\n      dup6\n        /* \"#utility.yul\":2377:2399   */\n      add\n        /* \"#utility.yul\":2345:2409   */\n      tag_56\n      jump\t// in\n    tag_97:\n        /* \"#utility.yul\":2335:2409   */\n      swap2\n      pop\n        /* \"#utility.yul\":2291:2419   */\n      pop\n        /* \"#utility.yul\":2075:2426   */\n      swap3\n      swap2\n      pop\n      pop\n      jump\t// out\n        /* \"#utility.yul\":2432:2612   */\n    tag_57:\n        /* \"#utility.yul\":2480:2557   */\n      0x4e487b7100000000000000000000000000000000000000000000000000000000\n        /* \"#utility.yul\":2477:2478   */\n      0x00\n        /* \"#utility.yul\":2470:2558   */\n      mstore\n        /* \"#utility.yul\":2577:2581   */\n      0x11\n        /* \"#utility.yul\":2574:2575   */\n      0x04\n        /* \"#utility.yul\":2567:2582   */\n      mstore\n        /* \"#utility.yul\":2601:2605   */\n      0x24\n        /* \"#utility.yul\":2598:2599   */\n      0x00\n        /* \"#utility.yul\":2591:2606   */\n      revert\n        /* \"#utility.yul\":2618:3174   */\n    tag_32:\n        /* \"#utility.yul\":2657:2664   */\n      0x00\n        /* \"#utility.yul\":2680:2699   */\n      tag_100\n        /* \"#utility.yul\":2697:2698   */\n      dup3\n        /* \"#utility.yul\":2680:2699   */\n      tag_51\n      jump\t// in\n    tag_100:\n        /* \"#utility.yul\":2675:2699   */\n      swap2\n      pop\n        /* \"#utility.yul\":2713:2732   */\n      tag_101\n        /* \"#utility.yul\":2730:2731   */\n      dup4\n        /* \"#utility.yul\":2713:2732   */\n      tag_51\n      jump\t// in\n    tag_101:\n        /* \"#utility.yul\":2708:2732   */\n      swap3\n      pop\n        /* \"#utility.yul\":2767:2768   */\n      dup3\n        /* \"#utility.yul\":2764:2765   */\n      dup3\n        /* \"#utility.yul\":2760:2769   */\n      mul\n        /* \"#utility.yul\":2789:2818   */\n      tag_102\n        /* \"#utility.yul\":2806:2817   */\n      dup2\n        /* \"#utility.yul\":2789:2818   */\n      tag_51\n      jump\t// in\n    tag_102:\n        /* \"#utility.yul\":2778:2818   */\n      swap2\n      pop\n        /* \"#utility.yul\":2876:2942   */\n      0x8000000000000000000000000000000000000000000000000000000000000000\n        /* \"#utility.yul\":2873:2874   */\n      dup5\n        /* \"#utility.yul\":2870:2943   */\n      eq\n        /* \"#utility.yul\":2866:2867   */\n      0x00\n        /* \"#utility.yul\":2863:2864   */\n      dup5\n        /* \"#utility.yul\":2859:2868   */\n      slt\n        /* \"#utility.yul\":2855:2944   */\n      and\n        /* \"#utility.yul\":2852:2967   */\n      iszero\n      tag_103\n      jumpi\n        /* \"#utility.yul\":2947:2965   */\n      tag_104\n      tag_57\n      jump\t// in\n    tag_104:\n        /* \"#utility.yul\":2852:2967   */\n    tag_103:\n        /* \"#utility.yul\":3117:3118   */\n      dup3\n        /* \"#utility.yul\":3108:3115   */\n      dup3\n        /* \"#utility.yul\":3103:3119   */\n      sdiv\n        /* \"#utility.yul\":3100:3101   */\n      dup5\n        /* \"#utility.yul\":3097:3120   */\n      eq\n        /* \"#utility.yul\":3077:3078   */\n      dup4\n        /* \"#utility.yul\":3070:3079   */\n      iszero\n        /* \"#utility.yul\":3050:3134   */\n      or\n        /* \"#utility.yul\":3027:3167   */\n      tag_105\n      jumpi\n        /* \"#utility.yul\":3147:3165   */\n      tag_106\n      tag_57\n      jump\t// in\n    tag_106:\n        /* \"#utility.yul\":3027:3167   */\n    tag_105:\n        /* \"#utility.yul\":2665:3174   */\n      pop\n        /* \"#utility.yul\":2618:3174   */\n      swap3\n      swap2\n      pop\n      pop\n      jump\t// out\n        /* \"#utility.yul\":3180:3360   */\n    tag_58:\n        /* \"#utility.yul\":3228:3305   */\n      0x4e487b7100000000000000000000000000000000000000000000000000000000\n        /* \"#utility.yul\":3225:3226   */\n      0x00\n        /* \"#utility.yul\":3218:3306   */\n      mstore\n        /* \"#utility.yul\":3325:3329   */\n      0x12\n        /* \"#utility.yul\":3322:3323   */\n      0x04\n        /* \"#utility.yul\":3315:3330   */\n      mstore\n        /* \"#utility.yul\":3349:3353   */\n      0x24\n        /* \"#utility.yul\":3346:3347   */\n      0x00\n        /* \"#utility.yul\":3339:3354   */\n      revert\n        /* \"#utility.yul\":3366:3751   */\n    tag_34:\n        /* \"#utility.yul\":3405:3406   */\n      0x00\n        /* \"#utility.yul\":3422:3441   */\n      tag_109\n        /* \"#utility.yul\":3439:3440   */\n      dup3\n        /* \"#utility.yul\":3422:3441   */\n      tag_51\n      jump\t// in\n    tag_109:\n        /* \"#utility.yul\":3417:3441   */\n      swap2\n      pop\n        /* \"#utility.yul\":3455:3474   */\n      tag_110\n        /* \"#utility.yul\":3472:3473   */\n      dup4\n        /* \"#utility.yul\":3455:3474   */\n      tag_51\n      jump\t// in\n    tag_110:\n        /* \"#utility.yul\":3450:3474   */\n      swap3\n      pop\n        /* \"#utility.yul\":3493:3494   */\n      dup3\n        /* \"#utility.yul\":3483:3518   */\n      tag_111\n      jumpi\n        /* \"#utility.yul\":3498:3516   */\n      tag_112\n      tag_58\n      jump\t// in\n    tag_112:\n        /* \"#utility.yul\":3483:3518   */\n    tag_111:\n        /* \"#utility.yul\":3684:3685   */\n      0x01\n        /* \"#utility.yul\":3681:3682   */\n      0x00\n        /* \"#utility.yul\":3677:3686   */\n      sub\n        /* \"#utility.yul\":3674:3675   */\n      dup4\n        /* \"#utility.yul\":3671:3687   */\n      eq\n        /* \"#utility.yul\":3590:3656   */\n      0x8000000000000000000000000000000000000000000000000000000000000000\n        /* \"#utility.yul\":3587:3588   */\n      dup4\n        /* \"#utility.yul\":3584:3657   */\n      eq\n        /* \"#utility.yul\":3567:3697   */\n      and\n        /* \"#utility.yul\":3564:3720   */\n      iszero\n      tag_113\n      jumpi\n        /* \"#utility.yul\":3700:3718   */\n      tag_114\n      tag_57\n      jump\t// in\n    tag_114:\n        /* \"#utility.yul\":3564:3720   */\n    tag_113:\n        /* \"#utility.yul\":3743:3744   */\n      dup3\n        /* \"#utility.yul\":3740:3741   */\n      dup3\n        /* \"#utility.yul\":3735:3745   */\n      sdiv\n        /* \"#utility.yul\":3730:3745   */\n      swap1\n      pop\n        /* \"#utility.yul\":3366:3751   */\n      swap3\n      swap2\n      pop\n      pop\n      jump\t// out\n        /* \"#utility.yul\":3757:3862   */\n    tag_59:\n        /* \"#utility.yul\":3793:3800   */\n      0x00\n        /* \"#utility.yul\":3833:3855   */\n      0xffffffffffffffffffff\n        /* \"#utility.yul\":3826:3831   */\n      dup3\n        /* \"#utility.yul\":3822:3856   */\n      and\n        /* \"#utility.yul\":3811:3856   */\n      swap1\n      pop\n        /* \"#utility.yul\":3757:3862   */\n      swap2\n      swap1\n      pop\n      jump\t// out\n        /* \"#utility.yul\":3868:3988   */\n    tag_60:\n        /* \"#utility.yul\":3940:3963   */\n      tag_117\n        /* \"#utility.yul\":3957:3962   */\n      dup2\n        /* \"#utility.yul\":3940:3963   */\n      tag_59\n      jump\t// in\n    tag_117:\n        /* \"#utility.yul\":3933:3938   */\n      dup2\n        /* \"#utility.yul\":3930:3964   */\n      eq\n        /* \"#utility.yul\":3920:3982   */\n      tag_118\n      jumpi\n        /* \"#utility.yul\":3978:3979   */\n      0x00\n        /* \"#utility.yul\":3975:3976   */\n      dup1\n        /* \"#utility.yul\":3968:3980   */\n      revert\n        /* \"#utility.yul\":3920:3982   */\n    tag_118:\n        /* \"#utility.yul\":3868:3988   */\n      pop\n      jump\t// out\n        /* \"#utility.yul\":3994:4135   */\n    tag_61:\n        /* \"#utility.yul\":4050:4055   */\n      0x00\n        /* \"#utility.yul\":4081:4087   */\n      dup2\n        /* \"#utility.yul\":4075:4088   */\n      mload\n        /* \"#utility.yul\":4066:4088   */\n      swap1\n      pop\n        /* \"#utility.yul\":4097:4129   */\n      tag_120\n        /* \"#utility.yul\":4123:4128   */\n      dup2\n        /* \"#utility.yul\":4097:4129   */\n      tag_60\n      jump\t// in\n    tag_120:\n        /* \"#utility.yul\":3994:4135   */\n      swap3\n      swap2\n      pop\n      pop\n      jump\t// out\n        /* \"#utility.yul\":4141:4282   */\n    tag_62:\n        /* \"#utility.yul\":4197:4202   */\n      0x00\n        /* \"#utility.yul\":4228:4234   */\n      dup2\n        /* \"#utility.yul\":4222:4235   */\n      mload\n        /* \"#utility.yul\":4213:4235   */\n      swap1\n      pop\n        /* \"#utility.yul\":4244:4276   */\n      tag_122\n        /* \"#utility.yul\":4270:4275   */\n      dup2\n        /* \"#utility.yul\":4244:4276   */\n      tag_52\n      jump\t// in\n    tag_122:\n        /* \"#utility.yul\":4141:4282   */\n      swap3\n      swap2\n      pop\n      pop\n      jump\t// out\n        /* \"#utility.yul\":4288:5259   */\n    tag_39:\n        /* \"#utility.yul\":4391:4397   */\n      0x00\n        /* \"#utility.yul\":4399:4405   */\n      dup1\n        /* \"#utility.yul\":4407:4413   */\n      0x00\n        /* \"#utility.yul\":4415:4421   */\n      dup1\n        /* \"#utility.yul\":4423:4429   */\n      0x00\n        /* \"#utility.yul\":4472:4475   */\n      0xa0\n        /* \"#utility.yul\":4460:4469   */\n      dup7\n        /* \"#utility.yul\":4451:4458   */\n      dup9\n        /* \"#utility.yul\":4447:4470   */\n      sub\n        /* \"#utility.yul\":4443:4476   */\n      slt\n        /* \"#utility.yul\":4440:4560   */\n      iszero\n      tag_124\n      jumpi\n        /* \"#utility.yul\":4479:4558   */\n      tag_125\n      tag_49\n      jump\t// in\n    tag_125:\n        /* \"#utility.yul\":4440:4560   */\n    tag_124:\n        /* \"#utility.yul\":4599:4600   */\n      0x00\n        /* \"#utility.yul\":4624:4687   */\n      tag_126\n        /* \"#utility.yul\":4679:4686   */\n      dup9\n        /* \"#utility.yul\":4670:4676   */\n      dup3\n        /* \"#utility.yul\":4659:4668   */\n      dup10\n        /* \"#utility.yul\":4655:4677   */\n      add\n        /* \"#utility.yul\":4624:4687   */\n      tag_61\n      jump\t// in\n    tag_126:\n        /* \"#utility.yul\":4614:4687   */\n      swap6\n      pop\n        /* \"#utility.yul\":4570:4697   */\n      pop\n        /* \"#utility.yul\":4736:4738   */\n      0x20\n        /* \"#utility.yul\":4762:4825   */\n      tag_127\n        /* \"#utility.yul\":4817:4824   */\n      dup9\n        /* \"#utility.yul\":4808:4814   */\n      dup3\n        /* \"#utility.yul\":4797:4806   */\n      dup10\n        /* \"#utility.yul\":4793:4815   */\n      add\n        /* \"#utility.yul\":4762:4825   */\n      tag_62\n      jump\t// in\n    tag_127:\n        /* \"#utility.yul\":4752:4825   */\n      swap5\n      pop\n        /* \"#utility.yul\":4707:4835   */\n      pop\n        /* \"#utility.yul\":4874:4876   */\n      0x40\n        /* \"#utility.yul\":4900:4964   */\n      tag_128\n        /* \"#utility.yul\":4956:4963   */\n      dup9\n        /* \"#utility.yul\":4947:4953   */\n      dup3\n        /* \"#utility.yul\":4936:4945   */\n      dup10\n        /* \"#utility.yul\":4932:4954   */\n      add\n        /* \"#utility.yul\":4900:4964   */\n      tag_56\n      jump\t// in\n    tag_128:\n        /* \"#utility.yul\":4890:4964   */\n      swap4\n      pop\n        /* \"#utility.yul\":4845:4974   */\n      pop\n        /* \"#utility.yul\":5013:5015   */\n      0x60\n        /* \"#utility.yul\":5039:5103   */\n      tag_129\n        /* \"#utility.yul\":5095:5102   */\n      dup9\n        /* \"#utility.yul\":5086:5092   */\n      dup3\n        /* \"#utility.yul\":5075:5084   */\n      dup10\n        /* \"#utility.yul\":5071:5093   */\n      add\n        /* \"#utility.yul\":5039:5103   */\n      tag_56\n      jump\t// in\n    tag_129:\n        /* \"#utility.yul\":5029:5103   */\n      swap3\n      pop\n        /* \"#utility.yul\":4984:5113   */\n      pop\n        /* \"#utility.yul\":5152:5155   */\n      0x80\n        /* \"#utility.yul\":5179:5242   */\n      tag_130\n        /* \"#utility.yul\":5234:5241   */\n      dup9\n        /* \"#utility.yul\":5225:5231   */\n      dup3\n        /* \"#utility.yul\":5214:5223   */\n      dup10\n        /* \"#utility.yul\":5210:5232   */\n      add\n        /* \"#utility.yul\":5179:5242   */\n      tag_61\n      jump\t// in\n    tag_130:\n        /* \"#utility.yul\":5169:5242   */\n      swap2\n      pop\n        /* \"#utility.yul\":5123:5252   */\n      pop\n        /* \"#utility.yul\":4288:5259   */\n      swap3\n      swap6\n      pop\n      swap3\n      swap6\n      swap1\n      swap4\n      pop\n      jump\t// out\n        /* \"#utility.yul\":5265:5434   */\n    tag_63:\n        /* \"#utility.yul\":5349:5360   */\n      0x00\n        /* \"#utility.yul\":5383:5389   */\n      dup3\n        /* \"#utility.yul\":5378:5381   */\n      dup3\n        /* \"#utility.yul\":5371:5390   */\n      mstore\n        /* \"#utility.yul\":5423:5427   */\n      0x20\n        /* \"#utility.yul\":5418:5421   */\n      dup3\n        /* \"#utility.yul\":5414:5428   */\n      add\n        /* \"#utility.yul\":5399:5428   */\n      swap1\n      pop\n        /* \"#utility.yul\":5265:5434   */\n      swap3\n      swap2\n      pop\n      pop\n      jump\t// out\n        /* \"#utility.yul\":5440:5617   */\n    tag_64:\n        /* \"#utility.yul\":5580:5609   */\n      0x4d696e696d756d20616d6f756e7420746f2073656e6420697320350000000000\n        /* \"#utility.yul\":5576:5577   */\n      0x00\n        /* \"#utility.yul\":5568:5574   */\n      dup3\n        /* \"#utility.yul\":5564:5578   */\n      add\n        /* \"#utility.yul\":5557:5610   */\n      mstore\n        /* \"#utility.yul\":5440:5617   */\n      pop\n      jump\t// out\n        /* \"#utility.yul\":5623:5989   */\n    tag_65:\n        /* \"#utility.yul\":5765:5768   */\n      0x00\n        /* \"#utility.yul\":5786:5853   */\n      tag_134\n        /* \"#utility.yul\":5850:5852   */\n      0x1b\n        /* \"#utility.yul\":5845:5848   */\n      dup4\n        /* \"#utility.yul\":5786:5853   */\n      tag_63\n      jump\t// in\n    tag_134:\n        /* \"#utility.yul\":5779:5853   */\n      swap2\n      pop\n        /* \"#utility.yul\":5862:5955   */\n      tag_135\n        /* \"#utility.yul\":5951:5954   */\n      dup3\n        /* \"#utility.yul\":5862:5955   */\n      tag_64\n      jump\t// in\n    tag_135:\n        /* \"#utility.yul\":5980:5982   */\n      0x20\n        /* \"#utility.yul\":5975:5978   */\n      dup3\n        /* \"#utility.yul\":5971:5983   */\n      add\n        /* \"#utility.yul\":5964:5983   */\n      swap1\n      pop\n        /* \"#utility.yul\":5623:5989   */\n      swap2\n      swap1\n      pop\n      jump\t// out\n        /* \"#utility.yul\":5995:6414   */\n    tag_45:\n        /* \"#utility.yul\":6161:6165   */\n      0x00\n        /* \"#utility.yul\":6199:6201   */\n      0x20\n        /* \"#utility.yul\":6188:6197   */\n      dup3\n        /* \"#utility.yul\":6184:6202   */\n      add\n        /* \"#utility.yul\":6176:6202   */\n      swap1\n      pop\n        /* \"#utility.yul\":6248:6257   */\n      dup2\n        /* \"#utility.yul\":6242:6246   */\n      dup2\n        /* \"#utility.yul\":6238:6258   */\n      sub\n        /* \"#utility.yul\":6234:6235   */\n      0x00\n        /* \"#utility.yul\":6223:6232   */\n      dup4\n        /* \"#utility.yul\":6219:6236   */\n      add\n        /* \"#utility.yul\":6212:6259   */\n      mstore\n        /* \"#utility.yul\":6276:6407   */\n      tag_137\n        /* \"#utility.yul\":6402:6406   */\n      dup2\n        /* \"#utility.yul\":6276:6407   */\n      tag_65\n      jump\t// in\n    tag_137:\n        /* \"#utility.yul\":6268:6407   */\n      swap1\n      pop\n        /* \"#utility.yul\":5995:6414   */\n      swap2\n      swap1\n      pop\n      jump\t// out\n\n    auxdata: 0xa26469706673582212201a231a6cf36e26e9df351b4ef28b1e28e949dc393908e4b18763eafaeb0673ea64736f6c634300081a0033\n}\n",
				"bytecode": {
					"linkReferences": {},
					"object": "608060405273694aa1769357215de4fac081bf1f309adc3253065f806101000a81548173ffffffffffffffffffffffffffffffffffffffff021916908373ffffffffffffffffffffffffffffffffffffffff16021790555060056001553480156066575f80fd5b50610665806100745f395ff3fe60806040526004361061003e575f3560e01c80630d8e6e2c14610042578063325df6e21461006c57806367c9b017146100a8578063b60d4288146100d2575b5f80fd5b34801561004d575f80fd5b506100566100dc565b60405161006391906102bd565b60405180910390f35b348015610077575f80fd5b50610092600480360381019061008d919061030d565b61016f565b60405161009f9190610347565b60405180910390f35b3480156100b3575f80fd5b506100bc6101a7565b6040516100c99190610347565b60405180910390f35b6100da610257565b005b5f805f9054906101000a900473ffffffffffffffffffffffffffffffffffffffff1673ffffffffffffffffffffffffffffffffffffffff166354fd4d506040518163ffffffff1660e01b8152600401602060405180830381865afa158015610146573d5f803e3d5ffd5b505050506040513d601f19601f8201168201806040525081019061016a919061038a565b905090565b5f806101796101a7565b90505f670de0b6b3a7640000828561019191906103e2565b61019b9190610485565b90508092505050919050565b5f805f8054906101000a900473ffffffffffffffffffffffffffffffffffffffff1690505f8173ffffffffffffffffffffffffffffffffffffffff1663feaf968c6040518163ffffffff1660e01b815260040160a060405180830381865afa158015610215573d5f803e3d5ffd5b505050506040513d601f19601f820116820180604052508101906102399190610540565b5050509150506402540be4008161025091906103e2565b9250505090565b6001546102633461016f565b136102a3576040517f08c379a000000000000000000000000000000000000000000000000000000000815260040161029a90610611565b60405180910390fd5b565b5f819050919050565b6102b7816102a5565b82525050565b5f6020820190506102d05f8301846102ae565b92915050565b5f80fd5b5f819050919050565b6102ec816102da565b81146102f6575f80fd5b50565b5f81359050610307816102e3565b92915050565b5f60208284031215610322576103216102d6565b5b5f61032f848285016102f9565b91505092915050565b610341816102da565b82525050565b5f60208201905061035a5f830184610338565b92915050565b610369816102a5565b8114610373575f80fd5b50565b5f8151905061038481610360565b92915050565b5f6020828403121561039f5761039e6102d6565b5b5f6103ac84828501610376565b91505092915050565b7f4e487b71000000000000000000000000000000000000000000000000000000005f52601160045260245ffd5b5f6103ec826102da565b91506103f7836102da565b9250828202610405816102da565b91507f800000000000000000000000000000000000000000000000000000000000000084145f8412161561043c5761043b6103b5565b5b8282058414831517610451576104506103b5565b5b5092915050565b7f4e487b71000000000000000000000000000000000000000000000000000000005f52601260045260245ffd5b5f61048f826102da565b915061049a836102da565b9250826104aa576104a9610458565b5b60015f0383147f8000000000000000000000000000000000000000000000000000000000000000831416156104e2576104e16103b5565b5b828205905092915050565b5f69ffffffffffffffffffff82169050919050565b61050b816104ed565b8114610515575f80fd5b50565b5f8151905061052681610502565b92915050565b5f8151905061053a816102e3565b92915050565b5f805f805f60a08688031215610559576105586102d6565b5b5f61056688828901610518565b95505060206105778882890161052c565b945050604061058888828901610376565b935050606061059988828901610376565b92505060806105aa88828901610518565b9150509295509295909350565b5f82825260208201905092915050565b7f4d696e696d756d20616d6f756e7420746f2073656e64206973203500000000005f82015250565b5f6105fb601b836105b7565b9150610606826105c7565b602082019050919050565b5f6020820190508181035f830152610628816105ef565b905091905056fea26469706673582212201a231a6cf36e26e9df351b4ef28b1e28e949dc393908e4b18763eafaeb0673ea64736f6c634300081a0033",
					"opcodes": "PUSH1 0x80 PUSH1 0x40 MSTORE PUSH20 0x694AA1769357215DE4FAC081BF1F309ADC325306 PUSH0 DUP1 PUSH2 0x100 EXP DUP2 SLOAD DUP2 PUSH20 0xFFFFFFFFFFFFFFFFFFFFFFFFFFFFFFFFFFFFFFFF MUL NOT AND SWAP1 DUP4 PUSH20 0xFFFFFFFFFFFFFFFFFFFFFFFFFFFFFFFFFFFFFFFF AND MUL OR SWAP1 SSTORE POP PUSH1 0x5 PUSH1 0x1 SSTORE CALLVALUE DUP1 ISZERO PUSH1 0x66 JUMPI PUSH0 DUP1 REVERT JUMPDEST POP PUSH2 0x665 DUP1 PUSH2 0x74 PUSH0 CODECOPY PUSH0 RETURN INVALID PUSH1 0x80 PUSH1 0x40 MSTORE PUSH1 0x4 CALLDATASIZE LT PUSH2 0x3E JUMPI PUSH0 CALLDATALOAD PUSH1 0xE0 SHR DUP1 PUSH4 0xD8E6E2C EQ PUSH2 0x42 JUMPI DUP1 PUSH4 0x325DF6E2 EQ PUSH2 0x6C JUMPI DUP1 PUSH4 0x67C9B017 EQ PUSH2 0xA8 JUMPI DUP1 PUSH4 0xB60D4288 EQ PUSH2 0xD2 JUMPI JUMPDEST PUSH0 DUP1 REVERT JUMPDEST CALLVALUE DUP1 ISZERO PUSH2 0x4D JUMPI PUSH0 DUP1 REVERT JUMPDEST POP PUSH2 0x56 PUSH2 0xDC JUMP JUMPDEST PUSH1 0x40 MLOAD PUSH2 0x63 SWAP2 SWAP1 PUSH2 0x2BD JUMP JUMPDEST PUSH1 0x40 MLOAD DUP1 SWAP2 SUB SWAP1 RETURN JUMPDEST CALLVALUE DUP1 ISZERO PUSH2 0x77 JUMPI PUSH0 DUP1 REVERT JUMPDEST POP PUSH2 0x92 PUSH1 0x4 DUP1 CALLDATASIZE SUB DUP2 ADD SWAP1 PUSH2 0x8D SWAP2 SWAP1 PUSH2 0x30D JUMP JUMPDEST PUSH2 0x16F JUMP JUMPDEST PUSH1 0x40 MLOAD PUSH2 0x9F SWAP2 SWAP1 PUSH2 0x347 JUMP JUMPDEST PUSH1 0x40 MLOAD DUP1 SWAP2 SUB SWAP1 RETURN JUMPDEST CALLVALUE DUP1 ISZERO PUSH2 0xB3 JUMPI PUSH0 DUP1 REVERT JUMPDEST POP PUSH2 0xBC PUSH2 0x1A7 JUMP JUMPDEST PUSH1 0x40 MLOAD PUSH2 0xC9 SWAP2 SWAP1 PUSH2 0x347 JUMP JUMPDEST PUSH1 0x40 MLOAD DUP1 SWAP2 SUB SWAP1 RETURN JUMPDEST PUSH2 0xDA PUSH2 0x257 JUMP JUMPDEST STOP JUMPDEST PUSH0 DUP1 PUSH0 SWAP1 SLOAD SWAP1 PUSH2 0x100 EXP SWAP1 DIV PUSH20 0xFFFFFFFFFFFFFFFFFFFFFFFFFFFFFFFFFFFFFFFF AND PUSH20 0xFFFFFFFFFFFFFFFFFFFFFFFFFFFFFFFFFFFFFFFF AND PUSH4 0x54FD4D50 PUSH1 0x40 MLOAD DUP2 PUSH4 0xFFFFFFFF AND PUSH1 0xE0 SHL DUP2 MSTORE PUSH1 0x4 ADD PUSH1 0x20 PUSH1 0x40 MLOAD DUP1 DUP4 SUB DUP2 DUP7 GAS STATICCALL ISZERO DUP1 ISZERO PUSH2 0x146 JUMPI RETURNDATASIZE PUSH0 DUP1 RETURNDATACOPY RETURNDATASIZE PUSH0 REVERT JUMPDEST POP POP POP POP PUSH1 0x40 MLOAD RETURNDATASIZE PUSH1 0x1F NOT PUSH1 0x1F DUP3 ADD AND DUP3 ADD DUP1 PUSH1 0x40 MSTORE POP DUP2 ADD SWAP1 PUSH2 0x16A SWAP2 SWAP1 PUSH2 0x38A JUMP JUMPDEST SWAP1 POP SWAP1 JUMP JUMPDEST PUSH0 DUP1 PUSH2 0x179 PUSH2 0x1A7 JUMP JUMPDEST SWAP1 POP PUSH0 PUSH8 0xDE0B6B3A7640000 DUP3 DUP6 PUSH2 0x191 SWAP2 SWAP1 PUSH2 0x3E2 JUMP JUMPDEST PUSH2 0x19B SWAP2 SWAP1 PUSH2 0x485 JUMP JUMPDEST SWAP1 POP DUP1 SWAP3 POP POP POP SWAP2 SWAP1 POP JUMP JUMPDEST PUSH0 DUP1 PUSH0 DUP1 SLOAD SWAP1 PUSH2 0x100 EXP SWAP1 DIV PUSH20 0xFFFFFFFFFFFFFFFFFFFFFFFFFFFFFFFFFFFFFFFF AND SWAP1 POP PUSH0 DUP2 PUSH20 0xFFFFFFFFFFFFFFFFFFFFFFFFFFFFFFFFFFFFFFFF AND PUSH4 0xFEAF968C PUSH1 0x40 MLOAD DUP2 PUSH4 0xFFFFFFFF AND PUSH1 0xE0 SHL DUP2 MSTORE PUSH1 0x4 ADD PUSH1 0xA0 PUSH1 0x40 MLOAD DUP1 DUP4 SUB DUP2 DUP7 GAS STATICCALL ISZERO DUP1 ISZERO PUSH2 0x215 JUMPI RETURNDATASIZE PUSH0 DUP1 RETURNDATACOPY RETURNDATASIZE PUSH0 REVERT JUMPDEST POP POP POP POP PUSH1 0x40 MLOAD RETURNDATASIZE PUSH1 0x1F NOT PUSH1 0x1F DUP3 ADD AND DUP3 ADD DUP1 PUSH1 0x40 MSTORE POP DUP2 ADD SWAP1 PUSH2 0x239 SWAP2 SWAP1 PUSH2 0x540 JUMP JUMPDEST POP POP POP SWAP2 POP POP PUSH5 0x2540BE400 DUP2 PUSH2 0x250 SWAP2 SWAP1 PUSH2 0x3E2 JUMP JUMPDEST SWAP3 POP POP POP SWAP1 JUMP JUMPDEST PUSH1 0x1 SLOAD PUSH2 0x263 CALLVALUE PUSH2 0x16F JUMP JUMPDEST SGT PUSH2 0x2A3 JUMPI PUSH1 0x40 MLOAD PUSH32 0x8C379A000000000000000000000000000000000000000000000000000000000 DUP2 MSTORE PUSH1 0x4 ADD PUSH2 0x29A SWAP1 PUSH2 0x611 JUMP JUMPDEST PUSH1 0x40 MLOAD DUP1 SWAP2 SUB SWAP1 REVERT JUMPDEST JUMP JUMPDEST PUSH0 DUP2 SWAP1 POP SWAP2 SWAP1 POP JUMP JUMPDEST PUSH2 0x2B7 DUP2 PUSH2 0x2A5 JUMP JUMPDEST DUP3 MSTORE POP POP JUMP JUMPDEST PUSH0 PUSH1 0x20 DUP3 ADD SWAP1 POP PUSH2 0x2D0 PUSH0 DUP4 ADD DUP5 PUSH2 0x2AE JUMP JUMPDEST SWAP3 SWAP2 POP POP JUMP JUMPDEST PUSH0 DUP1 REVERT JUMPDEST PUSH0 DUP2 SWAP1 POP SWAP2 SWAP1 POP JUMP JUMPDEST PUSH2 0x2EC DUP2 PUSH2 0x2DA JUMP JUMPDEST DUP2 EQ PUSH2 0x2F6 JUMPI PUSH0 DUP1 REVERT JUMPDEST POP JUMP JUMPDEST PUSH0 DUP2 CALLDATALOAD SWAP1 POP PUSH2 0x307 DUP2 PUSH2 0x2E3 JUMP JUMPDEST SWAP3 SWAP2 POP POP JUMP JUMPDEST PUSH0 PUSH1 0x20 DUP3 DUP5 SUB SLT ISZERO PUSH2 0x322 JUMPI PUSH2 0x321 PUSH2 0x2D6 JUMP JUMPDEST JUMPDEST PUSH0 PUSH2 0x32F DUP5 DUP3 DUP6 ADD PUSH2 0x2F9 JUMP JUMPDEST SWAP2 POP POP SWAP3 SWAP2 POP POP JUMP JUMPDEST PUSH2 0x341 DUP2 PUSH2 0x2DA JUMP JUMPDEST DUP3 MSTORE POP POP JUMP JUMPDEST PUSH0 PUSH1 0x20 DUP3 ADD SWAP1 POP PUSH2 0x35A PUSH0 DUP4 ADD DUP5 PUSH2 0x338 JUMP JUMPDEST SWAP3 SWAP2 POP POP JUMP JUMPDEST PUSH2 0x369 DUP2 PUSH2 0x2A5 JUMP JUMPDEST DUP2 EQ PUSH2 0x373 JUMPI PUSH0 DUP1 REVERT JUMPDEST POP JUMP JUMPDEST PUSH0 DUP2 MLOAD SWAP1 POP PUSH2 0x384 DUP2 PUSH2 0x360 JUMP JUMPDEST SWAP3 SWAP2 POP POP JUMP JUMPDEST PUSH0 PUSH1 0x20 DUP3 DUP5 SUB SLT ISZERO PUSH2 0x39F JUMPI PUSH2 0x39E PUSH2 0x2D6 JUMP JUMPDEST JUMPDEST PUSH0 PUSH2 0x3AC DUP5 DUP3 DUP6 ADD PUSH2 0x376 JUMP JUMPDEST SWAP2 POP POP SWAP3 SWAP2 POP POP JUMP JUMPDEST PUSH32 0x4E487B7100000000000000000000000000000000000000000000000000000000 PUSH0 MSTORE PUSH1 0x11 PUSH1 0x4 MSTORE PUSH1 0x24 PUSH0 REVERT JUMPDEST PUSH0 PUSH2 0x3EC DUP3 PUSH2 0x2DA JUMP JUMPDEST SWAP2 POP PUSH2 0x3F7 DUP4 PUSH2 0x2DA JUMP JUMPDEST SWAP3 POP DUP3 DUP3 MUL PUSH2 0x405 DUP2 PUSH2 0x2DA JUMP JUMPDEST SWAP2 POP PUSH32 0x8000000000000000000000000000000000000000000000000000000000000000 DUP5 EQ PUSH0 DUP5 SLT AND ISZERO PUSH2 0x43C JUMPI PUSH2 0x43B PUSH2 0x3B5 JUMP JUMPDEST JUMPDEST DUP3 DUP3 SDIV DUP5 EQ DUP4 ISZERO OR PUSH2 0x451 JUMPI PUSH2 0x450 PUSH2 0x3B5 JUMP JUMPDEST JUMPDEST POP SWAP3 SWAP2 POP POP JUMP JUMPDEST PUSH32 0x4E487B7100000000000000000000000000000000000000000000000000000000 PUSH0 MSTORE PUSH1 0x12 PUSH1 0x4 MSTORE PUSH1 0x24 PUSH0 REVERT JUMPDEST PUSH0 PUSH2 0x48F DUP3 PUSH2 0x2DA JUMP JUMPDEST SWAP2 POP PUSH2 0x49A DUP4 PUSH2 0x2DA JUMP JUMPDEST SWAP3 POP DUP3 PUSH2 0x4AA JUMPI PUSH2 0x4A9 PUSH2 0x458 JUMP JUMPDEST JUMPDEST PUSH1 0x1 PUSH0 SUB DUP4 EQ PUSH32 0x8000000000000000000000000000000000000000000000000000000000000000 DUP4 EQ AND ISZERO PUSH2 0x4E2 JUMPI PUSH2 0x4E1 PUSH2 0x3B5 JUMP JUMPDEST JUMPDEST DUP3 DUP3 SDIV SWAP1 POP SWAP3 SWAP2 POP POP JUMP JUMPDEST PUSH0 PUSH10 0xFFFFFFFFFFFFFFFFFFFF DUP3 AND SWAP1 POP SWAP2 SWAP1 POP JUMP JUMPDEST PUSH2 0x50B DUP2 PUSH2 0x4ED JUMP JUMPDEST DUP2 EQ PUSH2 0x515 JUMPI PUSH0 DUP1 REVERT JUMPDEST POP JUMP JUMPDEST PUSH0 DUP2 MLOAD SWAP1 POP PUSH2 0x526 DUP2 PUSH2 0x502 JUMP JUMPDEST SWAP3 SWAP2 POP POP JUMP JUMPDEST PUSH0 DUP2 MLOAD SWAP1 POP PUSH2 0x53A DUP2 PUSH2 0x2E3 JUMP JUMPDEST SWAP3 SWAP2 POP POP JUMP JUMPDEST PUSH0 DUP1 PUSH0 DUP1 PUSH0 PUSH1 0xA0 DUP7 DUP9 SUB SLT ISZERO PUSH2 0x559 JUMPI PUSH2 0x558 PUSH2 0x2D6 JUMP JUMPDEST JUMPDEST PUSH0 PUSH2 0x566 DUP9 DUP3 DUP10 ADD PUSH2 0x518 JUMP JUMPDEST SWAP6 POP POP PUSH1 0x20 PUSH2 0x577 DUP9 DUP3 DUP10 ADD PUSH2 0x52C JUMP JUMPDEST SWAP5 POP POP PUSH1 0x40 PUSH2 0x588 DUP9 DUP3 DUP10 ADD PUSH2 0x376 JUMP JUMPDEST SWAP4 POP POP PUSH1 0x60 PUSH2 0x599 DUP9 DUP3 DUP10 ADD PUSH2 0x376 JUMP JUMPDEST SWAP3 POP POP PUSH1 0x80 PUSH2 0x5AA DUP9 DUP3 DUP10 ADD PUSH2 0x518 JUMP JUMPDEST SWAP2 POP POP SWAP3 SWAP6 POP SWAP3 SWAP6 SWAP1 SWAP4 POP JUMP JUMPDEST PUSH0 DUP3 DUP3 MSTORE PUSH1 0x20 DUP3 ADD SWAP1 POP SWAP3 SWAP2 POP POP JUMP JUMPDEST PUSH32 0x4D696E696D756D20616D6F756E7420746F2073656E6420697320350000000000 PUSH0 DUP3 ADD MSTORE POP JUMP JUMPDEST PUSH0 PUSH2 0x5FB PUSH1 0x1B DUP4 PUSH2 0x5B7 JUMP JUMPDEST SWAP2 POP PUSH2 0x606 DUP3 PUSH2 0x5C7 JUMP JUMPDEST PUSH1 0x20 DUP3 ADD SWAP1 POP SWAP2 SWAP1 POP JUMP JUMPDEST PUSH0 PUSH1 0x20 DUP3 ADD SWAP1 POP DUP2 DUP2 SUB PUSH0 DUP4 ADD MSTORE PUSH2 0x628 DUP2 PUSH2 0x5EF JUMP JUMPDEST SWAP1 POP SWAP2 SWAP1 POP JUMP INVALID LOG2 PUSH5 0x6970667358 0x22 SLT KECCAK256 BYTE 0x23 BYTE PUSH13 0xF36E26E9DF351B4EF28B1E28E9 BLOBHASH 0xDC CODECOPY CODECOPY ADDMOD 0xE4 0xB1 DUP8 PUSH4 0xEAFAEB06 PUSH20 0xEA64736F6C634300081A00330000000000000000 "
				},
				"gasEstimates": {
					"creation": {
						"codeDepositCost": "327400",
						"executionCost": "46738",
						"totalCost": "374138"
					},
					"external": {
						"fund()": "infinite",
						"getConversionRate(int256)": "infinite",
						"getEthPrice()": "infinite",
						"getVersion()": "infinite"
					}
				},
				"methodIdentifiers": {
					"fund()": "b60d4288",
					"getConversionRate(int256)": "325df6e2",
					"getEthPrice()": "67c9b017",
					"getVersion()": "0d8e6e2c"
				}
			},
			"storageLayout": {
				"storage": [
					{
						"astId": 52,
						"contract": "Crowdfund.sol:CrowdFund",
						"label": "priceFeedAdress",
						"offset": 0,
						"slot": "0",
						"type": "t_address"
					},
					{
						"astId": 55,
						"contract": "Crowdfund.sol:CrowdFund",
						"label": "minAmount",
						"offset": 0,
						"slot": "1",
						"type": "t_int256"
					}
				],
				"types": {
					"t_address": {
						"encoding": "inplace",
						"label": "address",
						"numberOfBytes": "20"
					},
					"t_int256": {
						"encoding": "inplace",
						"label": "int256",
						"numberOfBytes": "32"
					}
				}
			},
			"userdoc": {
				"kind": "user",
				"methods": {},
				"version": 1
			}
		}
	}
}