{
	"Crowdfund.sol": {
		"CrowdFund": {
			"abi": [
				{
					"inputs": [],
					"name": "fund",
					"outputs": [],
					"stateMutability": "payable",
					"type": "function"
				},
				{
					"inputs": [],
					"name": "getEthPrice",
					"outputs": [
						{
							"internalType": "int256",
							"name": "",
							"type": "int256"
						}
					],
					"stateMutability": "view",
					"type": "function"
				},
				{
					"inputs": [],
					"name": "getVersion",
					"outputs": [
						{
							"internalType": "uint256",
							"name": "",
							"type": "uint256"
						}
					],
					"stateMutability": "view",
					"type": "function"
				},
				{
					"inputs": [],
					"name": "withdraw",
					"outputs": [],
					"stateMutability": "nonpayable",
					"type": "function"
				}
			],
			"devdoc": {
				"kind": "dev",
				"methods": {},
				"version": 1
			},
			"evm": {
				"assembly": "    /* \"Crowdfund.sol\":339:999  contract CrowdFund {... */\n  mstore(0x40, 0x80)\n    /* \"Crowdfund.sol\":390:432  0x694AA1769357215DE4FAC081bf1f309aDC325306 */\n  0x694aa1769357215de4fac081bf1f309adc325306\n    /* \"Crowdfund.sol\":364:432  address priceFeedAdress = 0x694AA1769357215DE4FAC081bf1f309aDC325306 */\n  0x00\n  dup1\n  0x0100\n  exp\n  dup2\n  sload\n  dup2\n  0xffffffffffffffffffffffffffffffffffffffff\n  mul\n  not\n  and\n  swap1\n  dup4\n  0xffffffffffffffffffffffffffffffffffffffff\n  and\n  mul\n  or\n  swap1\n  sstore\n  pop\n    /* \"Crowdfund.sol\":458:459  5 */\n  0x05\n    /* \"Crowdfund.sol\":438:459  uint256 minAmount = 5 */\n  0x01\n  sstore\n    /* \"Crowdfund.sol\":339:999  contract CrowdFund {... */\n  callvalue\n  dup1\n  iszero\n  tag_1\n  jumpi\n  0x00\n  dup1\n  revert\ntag_1:\n  pop\n  dataSize(sub_0)\n  dup1\n  dataOffset(sub_0)\n  0x00\n  codecopy\n  0x00\n  return\nstop\n\nsub_0: assembly {\n        /* \"Crowdfund.sol\":339:999  contract CrowdFund {... */\n      mstore(0x40, 0x80)\n      jumpi(tag_1, lt(calldatasize, 0x04))\n      shr(0xe0, calldataload(0x00))\n      dup1\n      0x0d8e6e2c\n      eq\n      tag_2\n      jumpi\n      dup1\n      0x3ccfd60b\n      eq\n      tag_3\n      jumpi\n      dup1\n      0x67c9b017\n      eq\n      tag_4\n      jumpi\n      dup1\n      0xb60d4288\n      eq\n      tag_5\n      jumpi\n    tag_1:\n      0x00\n      dup1\n      revert\n        /* \"Crowdfund.sol\":576:700  function getVersion() public view returns (uint256) {... */\n    tag_2:\n      callvalue\n      dup1\n      iszero\n      tag_6\n      jumpi\n      0x00\n      dup1\n      revert\n    tag_6:\n      pop\n      tag_7\n      tag_8\n      jump\t// in\n    tag_7:\n      mload(0x40)\n      tag_9\n      swap2\n      swap1\n      tag_10\n      jump\t// in\n    tag_9:\n      mload(0x40)\n      dup1\n      swap2\n      sub\n      swap1\n      return\n        /* \"Crowdfund.sol\":961:997  function withdraw () public {... */\n    tag_3:\n      callvalue\n      dup1\n      iszero\n      tag_11\n      jumpi\n      0x00\n      dup1\n      revert\n    tag_11:\n      pop\n      tag_12\n      tag_13\n      jump\t// in\n    tag_12:\n      stop\n        /* \"Crowdfund.sol\":706:955  function getEthPrice() public view returns (int256) {... */\n    tag_4:\n      callvalue\n      dup1\n      iszero\n      tag_14\n      jumpi\n      0x00\n      dup1\n      revert\n    tag_14:\n      pop\n      tag_15\n      tag_16\n      jump\t// in\n    tag_15:\n      mload(0x40)\n      tag_17\n      swap2\n      swap1\n      tag_18\n      jump\t// in\n    tag_17:\n      mload(0x40)\n      dup1\n      swap2\n      sub\n      swap1\n      return\n        /* \"Crowdfund.sol\":466:570  function fund() public payable {... */\n    tag_5:\n      tag_19\n      tag_20\n      jump\t// in\n    tag_19:\n      stop\n        /* \"Crowdfund.sol\":576:700  function getVersion() public view returns (uint256) {... */\n    tag_8:\n        /* \"Crowdfund.sol\":619:626  uint256 */\n      0x00\n        /* \"Crowdfund.sol\":667:682  priceFeedAdress */\n      dup1\n      0x00\n      swap1\n      sload\n      swap1\n      0x0100\n      exp\n      swap1\n      div\n      0xffffffffffffffffffffffffffffffffffffffff\n      and\n        /* \"Crowdfund.sol\":645:691  AggregatorV3Interface(priceFeedAdress).version */\n      0xffffffffffffffffffffffffffffffffffffffff\n      and\n      0x54fd4d50\n        /* \"Crowdfund.sol\":645:693  AggregatorV3Interface(priceFeedAdress).version() */\n      mload(0x40)\n      dup2\n      0xffffffff\n      and\n      0xe0\n      shl\n      dup2\n      mstore\n      0x04\n      add\n      0x20\n      mload(0x40)\n      dup1\n      dup4\n      sub\n      dup2\n      dup7\n      gas\n      staticcall\n      iszero\n      dup1\n      iszero\n      tag_23\n      jumpi\n      returndatasize\n      0x00\n      dup1\n      returndatacopy\n      revert(0x00, returndatasize)\n    tag_23:\n      pop\n      pop\n      pop\n      pop\n      mload(0x40)\n      returndatasize\n      not(0x1f)\n      0x1f\n      dup3\n      add\n      and\n      dup3\n      add\n      dup1\n      0x40\n      mstore\n      pop\n      dup2\n      add\n      swap1\n      tag_24\n      swap2\n      swap1\n      tag_25\n      jump\t// in\n    tag_24:\n        /* \"Crowdfund.sol\":638:693  return AggregatorV3Interface(priceFeedAdress).version() */\n      swap1\n      pop\n        /* \"Crowdfund.sol\":576:700  function getVersion() public view returns (uint256) {... */\n      swap1\n      jump\t// out\n        /* \"Crowdfund.sol\":961:997  function withdraw () public {... */\n    tag_13:\n      jump\t// out\n        /* \"Crowdfund.sol\":706:955  function getEthPrice() public view returns (int256) {... */\n    tag_16:\n        /* \"Crowdfund.sol\":750:756  int256 */\n      0x00\n        /* \"Crowdfund.sol\":768:799  AggregatorV3Interface priceFeed */\n      dup1\n        /* \"Crowdfund.sol\":837:852  priceFeedAdress */\n      0x00\n      dup1\n      sload\n      swap1\n      0x0100\n      exp\n      swap1\n      div\n      0xffffffffffffffffffffffffffffffffffffffff\n      and\n        /* \"Crowdfund.sol\":768:862  AggregatorV3Interface priceFeed = AggregatorV3Interface(... */\n      swap1\n      pop\n        /* \"Crowdfund.sol\":875:888  int256 answer */\n      0x00\n        /* \"Crowdfund.sol\":898:907  priceFeed */\n      dup2\n        /* \"Crowdfund.sol\":898:923  priceFeed.latestRoundData */\n      0xffffffffffffffffffffffffffffffffffffffff\n      and\n      0xfeaf968c\n        /* \"Crowdfund.sol\":898:925  priceFeed.latestRoundData() */\n      mload(0x40)\n      dup2\n      0xffffffff\n      and\n      0xe0\n      shl\n      dup2\n      mstore\n      0x04\n      add\n      0xa0\n      mload(0x40)\n      dup1\n      dup4\n      sub\n      dup2\n      dup7\n      gas\n      staticcall\n      iszero\n      dup1\n      iszero\n      tag_29\n      jumpi\n      returndatasize\n      0x00\n      dup1\n      returndatacopy\n      revert(0x00, returndatasize)\n    tag_29:\n      pop\n      pop\n      pop\n      pop\n      mload(0x40)\n      returndatasize\n      not(0x1f)\n      0x1f\n      dup3\n      add\n      and\n      dup3\n      add\n      dup1\n      0x40\n      mstore\n      pop\n      dup2\n      add\n      swap1\n      tag_30\n      swap2\n      swap1\n      tag_31\n      jump\t// in\n    tag_30:\n        /* \"Crowdfund.sol\":872:925  (, int256 answer, , , ) = priceFeed.latestRoundData() */\n      pop\n      pop\n      pop\n      swap2\n      pop\n      pop\n        /* \"Crowdfund.sol\":942:948  answer */\n      dup1\n        /* \"Crowdfund.sol\":935:948  return answer */\n      swap3\n      pop\n      pop\n      pop\n        /* \"Crowdfund.sol\":706:955  function getEthPrice() public view returns (int256) {... */\n      swap1\n      jump\t// out\n        /* \"Crowdfund.sol\":466:570  function fund() public payable {... */\n    tag_20:\n        /* \"Crowdfund.sol\":527:531  1e18 */\n      0x0de0b6b3a7640000\n        /* \"Crowdfund.sol\":515:524  msg.value */\n      callvalue\n        /* \"Crowdfund.sol\":515:531  msg.value > 1e18 */\n      gt\n        /* \"Crowdfund.sol\":507:563  require(msg.value > 1e18, \"Minimum amount to send is 5\") */\n      tag_33\n      jumpi\n      mload(0x40)\n      0x08c379a000000000000000000000000000000000000000000000000000000000\n      dup2\n      mstore\n      0x04\n      add\n      tag_34\n      swap1\n      tag_35\n      jump\t// in\n    tag_34:\n      mload(0x40)\n      dup1\n      swap2\n      sub\n      swap1\n      revert\n    tag_33:\n        /* \"Crowdfund.sol\":466:570  function fund() public payable {... */\n      jump\t// out\n        /* \"#utility.yul\":7:84   */\n    tag_36:\n        /* \"#utility.yul\":44:51   */\n      0x00\n        /* \"#utility.yul\":73:78   */\n      dup2\n        /* \"#utility.yul\":62:78   */\n      swap1\n      pop\n        /* \"#utility.yul\":7:84   */\n      swap2\n      swap1\n      pop\n      jump\t// out\n        /* \"#utility.yul\":90:208   */\n    tag_37:\n        /* \"#utility.yul\":177:201   */\n      tag_56\n        /* \"#utility.yul\":195:200   */\n      dup2\n        /* \"#utility.yul\":177:201   */\n      tag_36\n      jump\t// in\n    tag_56:\n        /* \"#utility.yul\":172:175   */\n      dup3\n        /* \"#utility.yul\":165:202   */\n      mstore\n        /* \"#utility.yul\":90:208   */\n      pop\n      pop\n      jump\t// out\n        /* \"#utility.yul\":214:436   */\n    tag_10:\n        /* \"#utility.yul\":307:311   */\n      0x00\n        /* \"#utility.yul\":345:347   */\n      0x20\n        /* \"#utility.yul\":334:343   */\n      dup3\n        /* \"#utility.yul\":330:348   */\n      add\n        /* \"#utility.yul\":322:348   */\n      swap1\n      pop\n        /* \"#utility.yul\":358:429   */\n      tag_58\n        /* \"#utility.yul\":426:427   */\n      0x00\n        /* \"#utility.yul\":415:424   */\n      dup4\n        /* \"#utility.yul\":411:428   */\n      add\n        /* \"#utility.yul\":402:408   */\n      dup5\n        /* \"#utility.yul\":358:429   */\n      tag_37\n      jump\t// in\n    tag_58:\n        /* \"#utility.yul\":214:436   */\n      swap3\n      swap2\n      pop\n      pop\n      jump\t// out\n        /* \"#utility.yul\":442:518   */\n    tag_38:\n        /* \"#utility.yul\":478:485   */\n      0x00\n        /* \"#utility.yul\":507:512   */\n      dup2\n        /* \"#utility.yul\":496:512   */\n      swap1\n      pop\n        /* \"#utility.yul\":442:518   */\n      swap2\n      swap1\n      pop\n      jump\t// out\n        /* \"#utility.yul\":524:639   */\n    tag_39:\n        /* \"#utility.yul\":609:632   */\n      tag_61\n        /* \"#utility.yul\":626:631   */\n      dup2\n        /* \"#utility.yul\":609:632   */\n      tag_38\n      jump\t// in\n    tag_61:\n        /* \"#utility.yul\":604:607   */\n      dup3\n        /* \"#utility.yul\":597:633   */\n      mstore\n        /* \"#utility.yul\":524:639   */\n      pop\n      pop\n      jump\t// out\n        /* \"#utility.yul\":645:863   */\n    tag_18:\n        /* \"#utility.yul\":736:740   */\n      0x00\n        /* \"#utility.yul\":774:776   */\n      0x20\n        /* \"#utility.yul\":763:772   */\n      dup3\n        /* \"#utility.yul\":759:777   */\n      add\n        /* \"#utility.yul\":751:777   */\n      swap1\n      pop\n        /* \"#utility.yul\":787:856   */\n      tag_63\n        /* \"#utility.yul\":853:854   */\n      0x00\n        /* \"#utility.yul\":842:851   */\n      dup4\n        /* \"#utility.yul\":838:855   */\n      add\n        /* \"#utility.yul\":829:835   */\n      dup5\n        /* \"#utility.yul\":787:856   */\n      tag_39\n      jump\t// in\n    tag_63:\n        /* \"#utility.yul\":645:863   */\n      swap3\n      swap2\n      pop\n      pop\n      jump\t// out\n        /* \"#utility.yul\":950:1067   */\n    tag_41:\n        /* \"#utility.yul\":1059:1060   */\n      0x00\n        /* \"#utility.yul\":1056:1057   */\n      dup1\n        /* \"#utility.yul\":1049:1061   */\n      revert\n        /* \"#utility.yul\":1196:1318   */\n    tag_43:\n        /* \"#utility.yul\":1269:1293   */\n      tag_68\n        /* \"#utility.yul\":1287:1292   */\n      dup2\n        /* \"#utility.yul\":1269:1293   */\n      tag_36\n      jump\t// in\n    tag_68:\n        /* \"#utility.yul\":1262:1267   */\n      dup2\n        /* \"#utility.yul\":1259:1294   */\n      eq\n        /* \"#utility.yul\":1249:1312   */\n      tag_69\n      jumpi\n        /* \"#utility.yul\":1308:1309   */\n      0x00\n        /* \"#utility.yul\":1305:1306   */\n      dup1\n        /* \"#utility.yul\":1298:1310   */\n      revert\n        /* \"#utility.yul\":1249:1312   */\n    tag_69:\n        /* \"#utility.yul\":1196:1318   */\n      pop\n      jump\t// out\n        /* \"#utility.yul\":1324:1467   */\n    tag_44:\n        /* \"#utility.yul\":1381:1386   */\n      0x00\n        /* \"#utility.yul\":1412:1418   */\n      dup2\n        /* \"#utility.yul\":1406:1419   */\n      mload\n        /* \"#utility.yul\":1397:1419   */\n      swap1\n      pop\n        /* \"#utility.yul\":1428:1461   */\n      tag_71\n        /* \"#utility.yul\":1455:1460   */\n      dup2\n        /* \"#utility.yul\":1428:1461   */\n      tag_43\n      jump\t// in\n    tag_71:\n        /* \"#utility.yul\":1324:1467   */\n      swap3\n      swap2\n      pop\n      pop\n      jump\t// out\n        /* \"#utility.yul\":1473:1824   */\n    tag_25:\n        /* \"#utility.yul\":1543:1549   */\n      0x00\n        /* \"#utility.yul\":1592:1594   */\n      0x20\n        /* \"#utility.yul\":1580:1589   */\n      dup3\n        /* \"#utility.yul\":1571:1578   */\n      dup5\n        /* \"#utility.yul\":1567:1590   */\n      sub\n        /* \"#utility.yul\":1563:1595   */\n      slt\n        /* \"#utility.yul\":1560:1679   */\n      iszero\n      tag_73\n      jumpi\n        /* \"#utility.yul\":1598:1677   */\n      tag_74\n      tag_41\n      jump\t// in\n    tag_74:\n        /* \"#utility.yul\":1560:1679   */\n    tag_73:\n        /* \"#utility.yul\":1718:1719   */\n      0x00\n        /* \"#utility.yul\":1743:1807   */\n      tag_75\n        /* \"#utility.yul\":1799:1806   */\n      dup5\n        /* \"#utility.yul\":1790:1796   */\n      dup3\n        /* \"#utility.yul\":1779:1788   */\n      dup6\n        /* \"#utility.yul\":1775:1797   */\n      add\n        /* \"#utility.yul\":1743:1807   */\n      tag_44\n      jump\t// in\n    tag_75:\n        /* \"#utility.yul\":1733:1807   */\n      swap2\n      pop\n        /* \"#utility.yul\":1689:1817   */\n      pop\n        /* \"#utility.yul\":1473:1824   */\n      swap3\n      swap2\n      pop\n      pop\n      jump\t// out\n        /* \"#utility.yul\":1830:1935   */\n    tag_45:\n        /* \"#utility.yul\":1866:1873   */\n      0x00\n        /* \"#utility.yul\":1906:1928   */\n      0xffffffffffffffffffff\n        /* \"#utility.yul\":1899:1904   */\n      dup3\n        /* \"#utility.yul\":1895:1929   */\n      and\n        /* \"#utility.yul\":1884:1929   */\n      swap1\n      pop\n        /* \"#utility.yul\":1830:1935   */\n      swap2\n      swap1\n      pop\n      jump\t// out\n        /* \"#utility.yul\":1941:2061   */\n    tag_46:\n        /* \"#utility.yul\":2013:2036   */\n      tag_78\n        /* \"#utility.yul\":2030:2035   */\n      dup2\n        /* \"#utility.yul\":2013:2036   */\n      tag_45\n      jump\t// in\n    tag_78:\n        /* \"#utility.yul\":2006:2011   */\n      dup2\n        /* \"#utility.yul\":2003:2037   */\n      eq\n        /* \"#utility.yul\":1993:2055   */\n      tag_79\n      jumpi\n        /* \"#utility.yul\":2051:2052   */\n      0x00\n        /* \"#utility.yul\":2048:2049   */\n      dup1\n        /* \"#utility.yul\":2041:2053   */\n      revert\n        /* \"#utility.yul\":1993:2055   */\n    tag_79:\n        /* \"#utility.yul\":1941:2061   */\n      pop\n      jump\t// out\n        /* \"#utility.yul\":2067:2208   */\n    tag_47:\n        /* \"#utility.yul\":2123:2128   */\n      0x00\n        /* \"#utility.yul\":2154:2160   */\n      dup2\n        /* \"#utility.yul\":2148:2161   */\n      mload\n        /* \"#utility.yul\":2139:2161   */\n      swap1\n      pop\n        /* \"#utility.yul\":2170:2202   */\n      tag_81\n        /* \"#utility.yul\":2196:2201   */\n      dup2\n        /* \"#utility.yul\":2170:2202   */\n      tag_46\n      jump\t// in\n    tag_81:\n        /* \"#utility.yul\":2067:2208   */\n      swap3\n      swap2\n      pop\n      pop\n      jump\t// out\n        /* \"#utility.yul\":2214:2334   */\n    tag_48:\n        /* \"#utility.yul\":2286:2309   */\n      tag_83\n        /* \"#utility.yul\":2303:2308   */\n      dup2\n        /* \"#utility.yul\":2286:2309   */\n      tag_38\n      jump\t// in\n    tag_83:\n        /* \"#utility.yul\":2279:2284   */\n      dup2\n        /* \"#utility.yul\":2276:2310   */\n      eq\n        /* \"#utility.yul\":2266:2328   */\n      tag_84\n      jumpi\n        /* \"#utility.yul\":2324:2325   */\n      0x00\n        /* \"#utility.yul\":2321:2322   */\n      dup1\n        /* \"#utility.yul\":2314:2326   */\n      revert\n        /* \"#utility.yul\":2266:2328   */\n    tag_84:\n        /* \"#utility.yul\":2214:2334   */\n      pop\n      jump\t// out\n        /* \"#utility.yul\":2340:2481   */\n    tag_49:\n        /* \"#utility.yul\":2396:2401   */\n      0x00\n        /* \"#utility.yul\":2427:2433   */\n      dup2\n        /* \"#utility.yul\":2421:2434   */\n      mload\n        /* \"#utility.yul\":2412:2434   */\n      swap1\n      pop\n        /* \"#utility.yul\":2443:2475   */\n      tag_86\n        /* \"#utility.yul\":2469:2474   */\n      dup2\n        /* \"#utility.yul\":2443:2475   */\n      tag_48\n      jump\t// in\n    tag_86:\n        /* \"#utility.yul\":2340:2481   */\n      swap3\n      swap2\n      pop\n      pop\n      jump\t// out\n        /* \"#utility.yul\":2487:3458   */\n    tag_31:\n        /* \"#utility.yul\":2590:2596   */\n      0x00\n        /* \"#utility.yul\":2598:2604   */\n      dup1\n        /* \"#utility.yul\":2606:2612   */\n      0x00\n        /* \"#utility.yul\":2614:2620   */\n      dup1\n        /* \"#utility.yul\":2622:2628   */\n      0x00\n        /* \"#utility.yul\":2671:2674   */\n      0xa0\n        /* \"#utility.yul\":2659:2668   */\n      dup7\n        /* \"#utility.yul\":2650:2657   */\n      dup9\n        /* \"#utility.yul\":2646:2669   */\n      sub\n        /* \"#utility.yul\":2642:2675   */\n      slt\n        /* \"#utility.yul\":2639:2759   */\n      iszero\n      tag_88\n      jumpi\n        /* \"#utility.yul\":2678:2757   */\n      tag_89\n      tag_41\n      jump\t// in\n    tag_89:\n        /* \"#utility.yul\":2639:2759   */\n    tag_88:\n        /* \"#utility.yul\":2798:2799   */\n      0x00\n        /* \"#utility.yul\":2823:2886   */\n      tag_90\n        /* \"#utility.yul\":2878:2885   */\n      dup9\n        /* \"#utility.yul\":2869:2875   */\n      dup3\n        /* \"#utility.yul\":2858:2867   */\n      dup10\n        /* \"#utility.yul\":2854:2876   */\n      add\n        /* \"#utility.yul\":2823:2886   */\n      tag_47\n      jump\t// in\n    tag_90:\n        /* \"#utility.yul\":2813:2886   */\n      swap6\n      pop\n        /* \"#utility.yul\":2769:2896   */\n      pop\n        /* \"#utility.yul\":2935:2937   */\n      0x20\n        /* \"#utility.yul\":2961:3024   */\n      tag_91\n        /* \"#utility.yul\":3016:3023   */\n      dup9\n        /* \"#utility.yul\":3007:3013   */\n      dup3\n        /* \"#utility.yul\":2996:3005   */\n      dup10\n        /* \"#utility.yul\":2992:3014   */\n      add\n        /* \"#utility.yul\":2961:3024   */\n      tag_49\n      jump\t// in\n    tag_91:\n        /* \"#utility.yul\":2951:3024   */\n      swap5\n      pop\n        /* \"#utility.yul\":2906:3034   */\n      pop\n        /* \"#utility.yul\":3073:3075   */\n      0x40\n        /* \"#utility.yul\":3099:3163   */\n      tag_92\n        /* \"#utility.yul\":3155:3162   */\n      dup9\n        /* \"#utility.yul\":3146:3152   */\n      dup3\n        /* \"#utility.yul\":3135:3144   */\n      dup10\n        /* \"#utility.yul\":3131:3153   */\n      add\n        /* \"#utility.yul\":3099:3163   */\n      tag_44\n      jump\t// in\n    tag_92:\n        /* \"#utility.yul\":3089:3163   */\n      swap4\n      pop\n        /* \"#utility.yul\":3044:3173   */\n      pop\n        /* \"#utility.yul\":3212:3214   */\n      0x60\n        /* \"#utility.yul\":3238:3302   */\n      tag_93\n        /* \"#utility.yul\":3294:3301   */\n      dup9\n        /* \"#utility.yul\":3285:3291   */\n      dup3\n        /* \"#utility.yul\":3274:3283   */\n      dup10\n        /* \"#utility.yul\":3270:3292   */\n      add\n        /* \"#utility.yul\":3238:3302   */\n      tag_44\n      jump\t// in\n    tag_93:\n        /* \"#utility.yul\":3228:3302   */\n      swap3\n      pop\n        /* \"#utility.yul\":3183:3312   */\n      pop\n        /* \"#utility.yul\":3351:3354   */\n      0x80\n        /* \"#utility.yul\":3378:3441   */\n      tag_94\n        /* \"#utility.yul\":3433:3440   */\n      dup9\n        /* \"#utility.yul\":3424:3430   */\n      dup3\n        /* \"#utility.yul\":3413:3422   */\n      dup10\n        /* \"#utility.yul\":3409:3431   */\n      add\n        /* \"#utility.yul\":3378:3441   */\n      tag_47\n      jump\t// in\n    tag_94:\n        /* \"#utility.yul\":3368:3441   */\n      swap2\n      pop\n        /* \"#utility.yul\":3322:3451   */\n      pop\n        /* \"#utility.yul\":2487:3458   */\n      swap3\n      swap6\n      pop\n      swap3\n      swap6\n      swap1\n      swap4\n      pop\n      jump\t// out\n        /* \"#utility.yul\":3464:3633   */\n    tag_50:\n        /* \"#utility.yul\":3548:3559   */\n      0x00\n        /* \"#utility.yul\":3582:3588   */\n      dup3\n        /* \"#utility.yul\":3577:3580   */\n      dup3\n        /* \"#utility.yul\":3570:3589   */\n      mstore\n        /* \"#utility.yul\":3622:3626   */\n      0x20\n        /* \"#utility.yul\":3617:3620   */\n      dup3\n        /* \"#utility.yul\":3613:3627   */\n      add\n        /* \"#utility.yul\":3598:3627   */\n      swap1\n      pop\n        /* \"#utility.yul\":3464:3633   */\n      swap3\n      swap2\n      pop\n      pop\n      jump\t// out\n        /* \"#utility.yul\":3639:3816   */\n    tag_51:\n        /* \"#utility.yul\":3779:3808   */\n      0x4d696e696d756d20616d6f756e7420746f2073656e6420697320350000000000\n        /* \"#utility.yul\":3775:3776   */\n      0x00\n        /* \"#utility.yul\":3767:3773   */\n      dup3\n        /* \"#utility.yul\":3763:3777   */\n      add\n        /* \"#utility.yul\":3756:3809   */\n      mstore\n        /* \"#utility.yul\":3639:3816   */\n      pop\n      jump\t// out\n        /* \"#utility.yul\":3822:4188   */\n    tag_52:\n        /* \"#utility.yul\":3964:3967   */\n      0x00\n        /* \"#utility.yul\":3985:4052   */\n      tag_98\n        /* \"#utility.yul\":4049:4051   */\n      0x1b\n        /* \"#utility.yul\":4044:4047   */\n      dup4\n        /* \"#utility.yul\":3985:4052   */\n      tag_50\n      jump\t// in\n    tag_98:\n        /* \"#utility.yul\":3978:4052   */\n      swap2\n      pop\n        /* \"#utility.yul\":4061:4154   */\n      tag_99\n        /* \"#utility.yul\":4150:4153   */\n      dup3\n        /* \"#utility.yul\":4061:4154   */\n      tag_51\n      jump\t// in\n    tag_99:\n        /* \"#utility.yul\":4179:4181   */\n      0x20\n        /* \"#utility.yul\":4174:4177   */\n      dup3\n        /* \"#utility.yul\":4170:4182   */\n      add\n        /* \"#utility.yul\":4163:4182   */\n      swap1\n      pop\n        /* \"#utility.yul\":3822:4188   */\n      swap2\n      swap1\n      pop\n      jump\t// out\n        /* \"#utility.yul\":4194:4613   */\n    tag_35:\n        /* \"#utility.yul\":4360:4364   */\n      0x00\n        /* \"#utility.yul\":4398:4400   */\n      0x20\n        /* \"#utility.yul\":4387:4396   */\n      dup3\n        /* \"#utility.yul\":4383:4401   */\n      add\n        /* \"#utility.yul\":4375:4401   */\n      swap1\n      pop\n        /* \"#utility.yul\":4447:4456   */\n      dup2\n        /* \"#utility.yul\":4441:4445   */\n      dup2\n        /* \"#utility.yul\":4437:4457   */\n      sub\n        /* \"#utility.yul\":4433:4434   */\n      0x00\n        /* \"#utility.yul\":4422:4431   */\n      dup4\n        /* \"#utility.yul\":4418:4435   */\n      add\n        /* \"#utility.yul\":4411:4458   */\n      mstore\n        /* \"#utility.yul\":4475:4606   */\n      tag_101\n        /* \"#utility.yul\":4601:4605   */\n      dup2\n        /* \"#utility.yul\":4475:4606   */\n      tag_52\n      jump\t// in\n    tag_101:\n        /* \"#utility.yul\":4467:4606   */\n      swap1\n      pop\n        /* \"#utility.yul\":4194:4613   */\n      swap2\n      swap1\n      pop\n      jump\t// out\n\n    auxdata: 0xa26469706673582212201c225e1cc9a7411dd12f517d193dbaca70360c272d29ba690fdee8b0069c83f864736f6c634300081a0033\n}\n",
				"bytecode": {
					"linkReferences": {},
					"object": "608060405273694aa1769357215de4fac081bf1f309adc3253065f806101000a81548173ffffffffffffffffffffffffffffffffffffffff021916908373ffffffffffffffffffffffffffffffffffffffff16021790555060056001553480156066575f80fd5b50610480806100745f395ff3fe60806040526004361061003e575f3560e01c80630d8e6e2c146100425780633ccfd60b1461006c57806367c9b01714610082578063b60d4288146100ac575b5f80fd5b34801561004d575f80fd5b506100566100b6565b604051610063919061024f565b60405180910390f35b348015610077575f80fd5b50610080610149565b005b34801561008d575f80fd5b5061009661014b565b6040516100a39190610280565b60405180910390f35b6100b46101eb565b005b5f805f9054906101000a900473ffffffffffffffffffffffffffffffffffffffff1673ffffffffffffffffffffffffffffffffffffffff166354fd4d506040518163ffffffff1660e01b8152600401602060405180830381865afa158015610120573d5f803e3d5ffd5b505050506040513d601f19601f8201168201806040525081019061014491906102c7565b905090565b565b5f805f8054906101000a900473ffffffffffffffffffffffffffffffffffffffff1690505f8173ffffffffffffffffffffffffffffffffffffffff1663feaf968c6040518163ffffffff1660e01b815260040160a060405180830381865afa1580156101b9573d5f803e3d5ffd5b505050506040513d601f19601f820116820180604052508101906101dd919061035b565b505050915050809250505090565b670de0b6b3a76400003411610235576040517f08c379a000000000000000000000000000000000000000000000000000000000815260040161022c9061042c565b60405180910390fd5b565b5f819050919050565b61024981610237565b82525050565b5f6020820190506102625f830184610240565b92915050565b5f819050919050565b61027a81610268565b82525050565b5f6020820190506102935f830184610271565b92915050565b5f80fd5b6102a681610237565b81146102b0575f80fd5b50565b5f815190506102c18161029d565b92915050565b5f602082840312156102dc576102db610299565b5b5f6102e9848285016102b3565b91505092915050565b5f69ffffffffffffffffffff82169050919050565b610310816102f2565b811461031a575f80fd5b50565b5f8151905061032b81610307565b92915050565b61033a81610268565b8114610344575f80fd5b50565b5f8151905061035581610331565b92915050565b5f805f805f60a0868803121561037457610373610299565b5b5f6103818882890161031d565b955050602061039288828901610347565b94505060406103a3888289016102b3565b93505060606103b4888289016102b3565b92505060806103c58882890161031d565b9150509295509295909350565b5f82825260208201905092915050565b7f4d696e696d756d20616d6f756e7420746f2073656e64206973203500000000005f82015250565b5f610416601b836103d2565b9150610421826103e2565b602082019050919050565b5f6020820190508181035f8301526104438161040a565b905091905056fea26469706673582212201c225e1cc9a7411dd12f517d193dbaca70360c272d29ba690fdee8b0069c83f864736f6c634300081a0033",
					"opcodes": "PUSH1 0x80 PUSH1 0x40 MSTORE PUSH20 0x694AA1769357215DE4FAC081BF1F309ADC325306 PUSH0 DUP1 PUSH2 0x100 EXP DUP2 SLOAD DUP2 PUSH20 0xFFFFFFFFFFFFFFFFFFFFFFFFFFFFFFFFFFFFFFFF MUL NOT AND SWAP1 DUP4 PUSH20 0xFFFFFFFFFFFFFFFFFFFFFFFFFFFFFFFFFFFFFFFF AND MUL OR SWAP1 SSTORE POP PUSH1 0x5 PUSH1 0x1 SSTORE CALLVALUE DUP1 ISZERO PUSH1 0x66 JUMPI PUSH0 DUP1 REVERT JUMPDEST POP PUSH2 0x480 DUP1 PUSH2 0x74 PUSH0 CODECOPY PUSH0 RETURN INVALID PUSH1 0x80 PUSH1 0x40 MSTORE PUSH1 0x4 CALLDATASIZE LT PUSH2 0x3E JUMPI PUSH0 CALLDATALOAD PUSH1 0xE0 SHR DUP1 PUSH4 0xD8E6E2C EQ PUSH2 0x42 JUMPI DUP1 PUSH4 0x3CCFD60B EQ PUSH2 0x6C JUMPI DUP1 PUSH4 0x67C9B017 EQ PUSH2 0x82 JUMPI DUP1 PUSH4 0xB60D4288 EQ PUSH2 0xAC JUMPI JUMPDEST PUSH0 DUP1 REVERT JUMPDEST CALLVALUE DUP1 ISZERO PUSH2 0x4D JUMPI PUSH0 DUP1 REVERT JUMPDEST POP PUSH2 0x56 PUSH2 0xB6 JUMP JUMPDEST PUSH1 0x40 MLOAD PUSH2 0x63 SWAP2 SWAP1 PUSH2 0x24F JUMP JUMPDEST PUSH1 0x40 MLOAD DUP1 SWAP2 SUB SWAP1 RETURN JUMPDEST CALLVALUE DUP1 ISZERO PUSH2 0x77 JUMPI PUSH0 DUP1 REVERT JUMPDEST POP PUSH2 0x80 PUSH2 0x149 JUMP JUMPDEST STOP JUMPDEST CALLVALUE DUP1 ISZERO PUSH2 0x8D JUMPI PUSH0 DUP1 REVERT JUMPDEST POP PUSH2 0x96 PUSH2 0x14B JUMP JUMPDEST PUSH1 0x40 MLOAD PUSH2 0xA3 SWAP2 SWAP1 PUSH2 0x280 JUMP JUMPDEST PUSH1 0x40 MLOAD DUP1 SWAP2 SUB SWAP1 RETURN JUMPDEST PUSH2 0xB4 PUSH2 0x1EB JUMP JUMPDEST STOP JUMPDEST PUSH0 DUP1 PUSH0 SWAP1 SLOAD SWAP1 PUSH2 0x100 EXP SWAP1 DIV PUSH20 0xFFFFFFFFFFFFFFFFFFFFFFFFFFFFFFFFFFFFFFFF AND PUSH20 0xFFFFFFFFFFFFFFFFFFFFFFFFFFFFFFFFFFFFFFFF AND PUSH4 0x54FD4D50 PUSH1 0x40 MLOAD DUP2 PUSH4 0xFFFFFFFF AND PUSH1 0xE0 SHL DUP2 MSTORE PUSH1 0x4 ADD PUSH1 0x20 PUSH1 0x40 MLOAD DUP1 DUP4 SUB DUP2 DUP7 GAS STATICCALL ISZERO DUP1 ISZERO PUSH2 0x120 JUMPI RETURNDATASIZE PUSH0 DUP1 RETURNDATACOPY RETURNDATASIZE PUSH0 REVERT JUMPDEST POP POP POP POP PUSH1 0x40 MLOAD RETURNDATASIZE PUSH1 0x1F NOT PUSH1 0x1F DUP3 ADD AND DUP3 ADD DUP1 PUSH1 0x40 MSTORE POP DUP2 ADD SWAP1 PUSH2 0x144 SWAP2 SWAP1 PUSH2 0x2C7 JUMP JUMPDEST SWAP1 POP SWAP1 JUMP JUMPDEST JUMP JUMPDEST PUSH0 DUP1 PUSH0 DUP1 SLOAD SWAP1 PUSH2 0x100 EXP SWAP1 DIV PUSH20 0xFFFFFFFFFFFFFFFFFFFFFFFFFFFFFFFFFFFFFFFF AND SWAP1 POP PUSH0 DUP2 PUSH20 0xFFFFFFFFFFFFFFFFFFFFFFFFFFFFFFFFFFFFFFFF AND PUSH4 0xFEAF968C PUSH1 0x40 MLOAD DUP2 PUSH4 0xFFFFFFFF AND PUSH1 0xE0 SHL DUP2 MSTORE PUSH1 0x4 ADD PUSH1 0xA0 PUSH1 0x40 MLOAD DUP1 DUP4 SUB DUP2 DUP7 GAS STATICCALL ISZERO DUP1 ISZERO PUSH2 0x1B9 JUMPI RETURNDATASIZE PUSH0 DUP1 RETURNDATACOPY RETURNDATASIZE PUSH0 REVERT JUMPDEST POP POP POP POP PUSH1 0x40 MLOAD RETURNDATASIZE PUSH1 0x1F NOT PUSH1 0x1F DUP3 ADD AND DUP3 ADD DUP1 PUSH1 0x40 MSTORE POP DUP2 ADD SWAP1 PUSH2 0x1DD SWAP2 SWAP1 PUSH2 0x35B JUMP JUMPDEST POP POP POP SWAP2 POP POP DUP1 SWAP3 POP POP POP SWAP1 JUMP JUMPDEST PUSH8 0xDE0B6B3A7640000 CALLVALUE GT PUSH2 0x235 JUMPI PUSH1 0x40 MLOAD PUSH32 0x8C379A000000000000000000000000000000000000000000000000000000000 DUP2 MSTORE PUSH1 0x4 ADD PUSH2 0x22C SWAP1 PUSH2 0x42C JUMP JUMPDEST PUSH1 0x40 MLOAD DUP1 SWAP2 SUB SWAP1 REVERT JUMPDEST JUMP JUMPDEST PUSH0 DUP2 SWAP1 POP SWAP2 SWAP1 POP JUMP JUMPDEST PUSH2 0x249 DUP2 PUSH2 0x237 JUMP JUMPDEST DUP3 MSTORE POP POP JUMP JUMPDEST PUSH0 PUSH1 0x20 DUP3 ADD SWAP1 POP PUSH2 0x262 PUSH0 DUP4 ADD DUP5 PUSH2 0x240 JUMP JUMPDEST SWAP3 SWAP2 POP POP JUMP JUMPDEST PUSH0 DUP2 SWAP1 POP SWAP2 SWAP1 POP JUMP JUMPDEST PUSH2 0x27A DUP2 PUSH2 0x268 JUMP JUMPDEST DUP3 MSTORE POP POP JUMP JUMPDEST PUSH0 PUSH1 0x20 DUP3 ADD SWAP1 POP PUSH2 0x293 PUSH0 DUP4 ADD DUP5 PUSH2 0x271 JUMP JUMPDEST SWAP3 SWAP2 POP POP JUMP JUMPDEST PUSH0 DUP1 REVERT JUMPDEST PUSH2 0x2A6 DUP2 PUSH2 0x237 JUMP JUMPDEST DUP2 EQ PUSH2 0x2B0 JUMPI PUSH0 DUP1 REVERT JUMPDEST POP JUMP JUMPDEST PUSH0 DUP2 MLOAD SWAP1 POP PUSH2 0x2C1 DUP2 PUSH2 0x29D JUMP JUMPDEST SWAP3 SWAP2 POP POP JUMP JUMPDEST PUSH0 PUSH1 0x20 DUP3 DUP5 SUB SLT ISZERO PUSH2 0x2DC JUMPI PUSH2 0x2DB PUSH2 0x299 JUMP JUMPDEST JUMPDEST PUSH0 PUSH2 0x2E9 DUP5 DUP3 DUP6 ADD PUSH2 0x2B3 JUMP JUMPDEST SWAP2 POP POP SWAP3 SWAP2 POP POP JUMP JUMPDEST PUSH0 PUSH10 0xFFFFFFFFFFFFFFFFFFFF DUP3 AND SWAP1 POP SWAP2 SWAP1 POP JUMP JUMPDEST PUSH2 0x310 DUP2 PUSH2 0x2F2 JUMP JUMPDEST DUP2 EQ PUSH2 0x31A JUMPI PUSH0 DUP1 REVERT JUMPDEST POP JUMP JUMPDEST PUSH0 DUP2 MLOAD SWAP1 POP PUSH2 0x32B DUP2 PUSH2 0x307 JUMP JUMPDEST SWAP3 SWAP2 POP POP JUMP JUMPDEST PUSH2 0x33A DUP2 PUSH2 0x268 JUMP JUMPDEST DUP2 EQ PUSH2 0x344 JUMPI PUSH0 DUP1 REVERT JUMPDEST POP JUMP JUMPDEST PUSH0 DUP2 MLOAD SWAP1 POP PUSH2 0x355 DUP2 PUSH2 0x331 JUMP JUMPDEST SWAP3 SWAP2 POP POP JUMP JUMPDEST PUSH0 DUP1 PUSH0 DUP1 PUSH0 PUSH1 0xA0 DUP7 DUP9 SUB SLT ISZERO PUSH2 0x374 JUMPI PUSH2 0x373 PUSH2 0x299 JUMP JUMPDEST JUMPDEST PUSH0 PUSH2 0x381 DUP9 DUP3 DUP10 ADD PUSH2 0x31D JUMP JUMPDEST SWAP6 POP POP PUSH1 0x20 PUSH2 0x392 DUP9 DUP3 DUP10 ADD PUSH2 0x347 JUMP JUMPDEST SWAP5 POP POP PUSH1 0x40 PUSH2 0x3A3 DUP9 DUP3 DUP10 ADD PUSH2 0x2B3 JUMP JUMPDEST SWAP4 POP POP PUSH1 0x60 PUSH2 0x3B4 DUP9 DUP3 DUP10 ADD PUSH2 0x2B3 JUMP JUMPDEST SWAP3 POP POP PUSH1 0x80 PUSH2 0x3C5 DUP9 DUP3 DUP10 ADD PUSH2 0x31D JUMP JUMPDEST SWAP2 POP POP SWAP3 SWAP6 POP SWAP3 SWAP6 SWAP1 SWAP4 POP JUMP JUMPDEST PUSH0 DUP3 DUP3 MSTORE PUSH1 0x20 DUP3 ADD SWAP1 POP SWAP3 SWAP2 POP POP JUMP JUMPDEST PUSH32 0x4D696E696D756D20616D6F756E7420746F2073656E6420697320350000000000 PUSH0 DUP3 ADD MSTORE POP JUMP JUMPDEST PUSH0 PUSH2 0x416 PUSH1 0x1B DUP4 PUSH2 0x3D2 JUMP JUMPDEST SWAP2 POP PUSH2 0x421 DUP3 PUSH2 0x3E2 JUMP JUMPDEST PUSH1 0x20 DUP3 ADD SWAP1 POP SWAP2 SWAP1 POP JUMP JUMPDEST PUSH0 PUSH1 0x20 DUP3 ADD SWAP1 POP DUP2 DUP2 SUB PUSH0 DUP4 ADD MSTORE PUSH2 0x443 DUP2 PUSH2 0x40A JUMP JUMPDEST SWAP1 POP SWAP2 SWAP1 POP JUMP INVALID LOG2 PUSH5 0x6970667358 0x22 SLT KECCAK256 SHR 0x22 MCOPY SHR 0xC9 0xA7 COINBASE SAR 0xD1 0x2F MLOAD PUSH30 0x193DBACA70360C272D29BA690FDEE8B0069C83F864736F6C634300081A00 CALLER "
				},
				"gasEstimates": {
					"creation": {
						"codeDepositCost": "230400",
						"executionCost": "46639",
						"totalCost": "277039"
					},
					"external": {
						"fund()": "469",
						"getEthPrice()": "infinite",
						"getVersion()": "infinite",
						"withdraw()": "143"
					}
				},
				"methodIdentifiers": {
					"fund()": "b60d4288",
					"getEthPrice()": "67c9b017",
					"getVersion()": "0d8e6e2c",
					"withdraw()": "3ccfd60b"
				}
			},
			"storageLayout": {
				"storage": [
					{
						"astId": 52,
						"contract": "Crowdfund.sol:CrowdFund",
						"label": "priceFeedAdress",
						"offset": 0,
						"slot": "0",
						"type": "t_address"
					},
					{
						"astId": 55,
						"contract": "Crowdfund.sol:CrowdFund",
						"label": "minAmount",
						"offset": 0,
						"slot": "1",
						"type": "t_uint256"
					}
				],
				"types": {
					"t_address": {
						"encoding": "inplace",
						"label": "address",
						"numberOfBytes": "20"
					},
					"t_uint256": {
						"encoding": "inplace",
						"label": "uint256",
						"numberOfBytes": "32"
					}
				}
			},
			"userdoc": {
				"kind": "user",
				"methods": {},
				"version": 1
			}
		}
	}
}