{
	"data": {
		"bytecode": {
			"linkReferences": {
				"PriceConvertor.sol": {
					"PriceConvertor": [
						{
							"length": 20,
							"start": 113
						}
					]
				}
			},
			"object": "608060405260055f553480156012575f80fd5b50610242806100205f395ff3fe608060405260043610610028575f3560e01c8063b60d42881461002c578063f788485614610036575b5f80fd5b61003461004c565b005b348015610041575f80fd5b5061004a610108565b005b5f543473__$6080d385234601c8db5c8ae5081e001f64$__63325df6e290916040518263ffffffff1660e01b81526004016100879190610122565b602060405180830381865af41580156100a2573d5f803e3d5ffd5b505050506040513d601f19601f820116820180604052508101906100c69190610169565b13610106576040517f08c379a00000000000000000000000000000000000000000000000000000000081526004016100fd906101ee565b60405180910390fd5b565b565b5f819050919050565b61011c8161010a565b82525050565b5f6020820190506101355f830184610113565b92915050565b5f80fd5b6101488161010a565b8114610152575f80fd5b50565b5f815190506101638161013f565b92915050565b5f6020828403121561017e5761017d61013b565b5b5f61018b84828501610155565b91505092915050565b5f82825260208201905092915050565b7f4d696e696d756d20616d6f756e7420746f2073656e64206973203500000000005f82015250565b5f6101d8601b83610194565b91506101e3826101a4565b602082019050919050565b5f6020820190508181035f830152610205816101cc565b905091905056fea2646970667358221220621e4cce70c6b68e3f48c659e241f3d93a5827bf79adb344208b7506d9fcd80964736f6c634300081a0033",
			"opcodes": "PUSH1 0x80 PUSH1 0x40 MSTORE PUSH1 0x5 PUSH0 SSTORE CALLVALUE DUP1 ISZERO PUSH1 0x12 JUMPI PUSH0 DUP1 REVERT JUMPDEST POP PUSH2 0x242 DUP1 PUSH2 0x20 PUSH0 CODECOPY PUSH0 RETURN INVALID PUSH1 0x80 PUSH1 0x40 MSTORE PUSH1 0x4 CALLDATASIZE LT PUSH2 0x28 JUMPI PUSH0 CALLDATALOAD PUSH1 0xE0 SHR DUP1 PUSH4 0xB60D4288 EQ PUSH2 0x2C JUMPI DUP1 PUSH4 0xF7884856 EQ PUSH2 0x36 JUMPI JUMPDEST PUSH0 DUP1 REVERT JUMPDEST PUSH2 0x34 PUSH2 0x4C JUMP JUMPDEST STOP JUMPDEST CALLVALUE DUP1 ISZERO PUSH2 0x41 JUMPI PUSH0 DUP1 REVERT JUMPDEST POP PUSH2 0x4A PUSH2 0x108 JUMP JUMPDEST STOP JUMPDEST PUSH0 SLOAD CALLVALUE PUSH20 0x0 PUSH4 0x325DF6E2 SWAP1 SWAP2 PUSH1 0x40 MLOAD DUP3 PUSH4 0xFFFFFFFF AND PUSH1 0xE0 SHL DUP2 MSTORE PUSH1 0x4 ADD PUSH2 0x87 SWAP2 SWAP1 PUSH2 0x122 JUMP JUMPDEST PUSH1 0x20 PUSH1 0x40 MLOAD DUP1 DUP4 SUB DUP2 DUP7 GAS DELEGATECALL ISZERO DUP1 ISZERO PUSH2 0xA2 JUMPI RETURNDATASIZE PUSH0 DUP1 RETURNDATACOPY RETURNDATASIZE PUSH0 REVERT JUMPDEST POP POP POP POP PUSH1 0x40 MLOAD RETURNDATASIZE PUSH1 0x1F NOT PUSH1 0x1F DUP3 ADD AND DUP3 ADD DUP1 PUSH1 0x40 MSTORE POP DUP2 ADD SWAP1 PUSH2 0xC6 SWAP2 SWAP1 PUSH2 0x169 JUMP JUMPDEST SGT PUSH2 0x106 JUMPI PUSH1 0x40 MLOAD PUSH32 0x8C379A000000000000000000000000000000000000000000000000000000000 DUP2 MSTORE PUSH1 0x4 ADD PUSH2 0xFD SWAP1 PUSH2 0x1EE JUMP JUMPDEST PUSH1 0x40 MLOAD DUP1 SWAP2 SUB SWAP1 REVERT JUMPDEST JUMP JUMPDEST JUMP JUMPDEST PUSH0 DUP2 SWAP1 POP SWAP2 SWAP1 POP JUMP JUMPDEST PUSH2 0x11C DUP2 PUSH2 0x10A JUMP JUMPDEST DUP3 MSTORE POP POP JUMP JUMPDEST PUSH0 PUSH1 0x20 DUP3 ADD SWAP1 POP PUSH2 0x135 PUSH0 DUP4 ADD DUP5 PUSH2 0x113 JUMP JUMPDEST SWAP3 SWAP2 POP POP JUMP JUMPDEST PUSH0 DUP1 REVERT JUMPDEST PUSH2 0x148 DUP2 PUSH2 0x10A JUMP JUMPDEST DUP2 EQ PUSH2 0x152 JUMPI PUSH0 DUP1 REVERT JUMPDEST POP JUMP JUMPDEST PUSH0 DUP2 MLOAD SWAP1 POP PUSH2 0x163 DUP2 PUSH2 0x13F JUMP JUMPDEST SWAP3 SWAP2 POP POP JUMP JUMPDEST PUSH0 PUSH1 0x20 DUP3 DUP5 SUB SLT ISZERO PUSH2 0x17E JUMPI PUSH2 0x17D PUSH2 0x13B JUMP JUMPDEST JUMPDEST PUSH0 PUSH2 0x18B DUP5 DUP3 DUP6 ADD PUSH2 0x155 JUMP JUMPDEST SWAP2 POP POP SWAP3 SWAP2 POP POP JUMP JUMPDEST PUSH0 DUP3 DUP3 MSTORE PUSH1 0x20 DUP3 ADD SWAP1 POP SWAP3 SWAP2 POP POP JUMP JUMPDEST PUSH32 0x4D696E696D756D20616D6F756E7420746F2073656E6420697320350000000000 PUSH0 DUP3 ADD MSTORE POP JUMP JUMPDEST PUSH0 PUSH2 0x1D8 PUSH1 0x1B DUP4 PUSH2 0x194 JUMP JUMPDEST SWAP2 POP PUSH2 0x1E3 DUP3 PUSH2 0x1A4 JUMP JUMPDEST PUSH1 0x20 DUP3 ADD SWAP1 POP SWAP2 SWAP1 POP JUMP JUMPDEST PUSH0 PUSH1 0x20 DUP3 ADD SWAP1 POP DUP2 DUP2 SUB PUSH0 DUP4 ADD MSTORE PUSH2 0x205 DUP2 PUSH2 0x1CC JUMP JUMPDEST SWAP1 POP SWAP2 SWAP1 POP JUMP INVALID LOG2 PUSH5 0x6970667358 0x22 SLT KECCAK256 PUSH3 0x1E4CCE PUSH17 0xC6B68E3F48C659E241F3D93A5827BF79AD 0xB3 PREVRANDAO KECCAK256 DUP12 PUSH22 0x6D9FCD80964736F6C634300081A0033000000000000 "
		},
		"gasEstimates": {
			"creation": {
				"codeDepositCost": "115600",
				"executionCost": "22268",
				"totalCost": "137868"
			},
			"external": {
				"fund()": "infinite",
				"withdarw()": "143"
			}
		},
		"methodIdentifiers": {
			"fund()": "b60d4288",
			"withdarw()": "f7884856"
		}
	},
	"abi": [
		{
			"inputs": [],
			"name": "fund",
			"outputs": [],
			"stateMutability": "payable",
			"type": "function"
		},
		{
			"inputs": [],
			"name": "withdarw",
			"outputs": [],
			"stateMutability": "nonpayable",
			"type": "function"
		}
	]
}